:020000040800F2
:1000000090110020511E0008251E0008271E000820
:10001000291E00082B1E00082D1E000800000000ED
:100020000000000000000000000000002F1E00087B
:10003000311E000800000000331E0008351E0008B5
:10004000991E00089D1E0008A11E0008A51E00089C
:10005000A91E0008AD1E0008B11E0008B51E00084C
:10006000B91E0008BD1E0008C11E0008C51E0008FC
:10007000C91E0008CD1E0008D11E0008D51E0008AC
:10008000D91E0008DD1E0008E11E0008E51E00085C
:10009000E91E0008ED1E0008F11E0008F51E00080C
:1000A000F91E0008FD1E0008011F0008051F0008BA
:1000B000091F00080D1F0008111F0008151F000868
:1000C000191F00081D1F0008211F0008251F000818
:1000D000291F00082D1F0008311F0008351F0008C8
:1000E000391F00083D1F0008411F0008451F000878
:1000F000491F00084D1F0008511F0008551F000828
:10010000591F00085D1F0008611F0008651F0008D7
:10011000691F00086D1F0008711F0008751F000887
:10012000791F00087D1F0008811F0008851F000837
:10013000891F00088D1F0008911F0008951F0008E7
:10014000991F00089D1F0008A11F0008A51F000897
:10015000A91F0008AD1F0008B11F0008B51F000847
:10016000B91F0008BD1F0008C11F0008C51F0008F7
:10017000C91F0008CD1F0008D11F000800000000A3
:10018000D51F0008D91F000870B40022042A23DA02
:100190000300DBB25400D4F10704234113F0010340
:1001A0001C00E4B2002C01D00F2400E00024050064
:1001B000EDB25600D6F10606354115F001052E00C8
:1001C000F6B2002E01D0F02300E000231C4353427E
:1001D0000B44DC70521CD9E770BC70472DE9FA4F14
:1001E00083B0834614009F2614208DF8060000205B
:1001F0008DF8040000208DF803009DF80C000E28F7
:1002000000F030810F2840F03D81584600F0BEF9E3
:1002100004984079C0B2C1009BF822004118C9B2CD
:10022000032091FBF0F025308DF80100F6B2032099
:1002300096FBF0F6F421584600F086F99DF801107F
:10024000584600F081F904988079C0B2C0008DF85A
:100250000000F521584600F077F99DF80010584647
:1002600000F072F9F621584600F06EF99DF8011081
:100270007118C9B2584600F067F9F721584600F0E6
:1002800063F99DF800109DF806004118C9B2584660
:1002900000F05AF99DF801A01AF00F0A9DF80180AC
:1002A0005FFA88F85FEA181858F010085146C9B28A
:1002B000584600F049F94146C9B2584600F044F9A1
:1002C00000275FF000099DF8000010F00F0050F0CB
:1002D00060008DF804009DF80000C0B2000950F0E5
:1002E00070008DF803009DF80410584600F02CF9BA
:1002F0009DF80310584600F027F904980079C0B221
:10030000C0008DF8050004980068050000208DF8F5
:10031000020000275FF000085FF000095FF0000AAC
:1003200051469DF8050089B280B2814280F09080EC
:10033000002101224046C0B22B5C12FA09F00340B2
:10034000012B01DB012000E0002001434046C0B248
:100350002844437812FA09F00340012B01DB022004
:1003600000E0002001434046C0B22844837812FADE
:1003700009F00340012B01DB042000E000200143D1
:100380004046C0B22844C37812FA09F00340012B5A
:1003900001DB082000E0002001434046C0B22844B1
:1003A000037912FA09F00340012B01DB102000E071
:1003B000002001434046C0B22844437912FA09F0B4
:1003C0000340012B01DB202000E0002001434046D8
:1003D000C0B22844837912FA09F00340012B01DBF3
:1003E000402000E0002001434046C0B22844C079CC
:1003F00012FA09F20240012A01DB802700E00027FF
:100400000F4318F108084046C0B2A02803D10020CD
:10041000804619F1010902A93800C0B2FFF7B4FE05
:1004200002AA0421584600F0A5F8504680B21338BD
:10043000142290FBF2F102FB1100002805D10DF10E
:1004400002020121584600F095F81AF1010A67E707
:10045000641E2000C0B200287FF458AF584600F058
:100460009EF811E0584600F091F88121584600F0BE
:100470006BF82100C9B2584600F071F8584600F0F8
:100480008EF801E0002000E0012005B0BDE8F08F0B
:10049000F8B504000D0016001F003B003200D2B278
:1004A0002900C9B22000FFF799FE00283DD128009D
:1004B000C0B2092806D00A2809D00B280FD00D2871
:1004C0001BD030E01E49200000F0FEF82DE0200097
:1004D00000F000F91B49200000F06AF825E0300028
:1004E000C0B2002804D11249200000F061F803E0F6
:1004F0001049200000F05CF817E03000C0B200287E
:1005000008D10D49200000F053F82068807C84F861
:10051000220007E00949200000F04AF82068C07C6A
:1005200084F8220001E0002000E00120F2BD00007C
:100530007C1E0008941E0008841E00088C1E000803
:10054000F41D00085C1C000870B504000D000023B9
:100550002A00D2B215212000E668B04770BD70B500
:1005600004000D0000232A00D2B216212000E66804
:10057000B04770BDF8B504000D00160033002A0026
:10058000D2B217212000E768B847F2BD38B50400A1
:100590000023002218212000E568A84732BD38B5A5
:1005A00004000023002219212000E568A84732BD7D
:1005B000F8B504000E0030780500761C2900C9B299
:1005C0001539012907D9891E12D0491E012919D9C7
:1005D000E6391FD029E030788DF8000000239DF81F
:1005E00000202900C9B22000E768B847761CE2E77E
:1005F00030788DF800006A4601212000FFF7BAFF2D
:10060000761CD8E7002300222900C9B22000E76841
:10061000B847D0E730788DF800009DF800202921F8
:10062000200000F0C2F8761CC5E7F1BDF8B5040063
:100630000D0016001F002800C0B2142821D02AD3B4
:10064000162810D005D318281BD016D3192818D077
:1006500021E00021200000F0B5F83100C9B22000EF
:1006600000F0C7F819E00021200000F0ABF83100DD
:10067000C9B2200000F0BDF80FE00121200000F019
:10068000A1F83B003200D2B22900C9B22000D4F850
:1006900010C0E04702E0002000E00120F2BD0EE0C3
:1006A00002684368024408305FEAC37C44BF4B449D
:1006B0005B1E52F804CB43F804CB091FF9D150F864
:1006C000041B0029ECD1704701600268927C80F81D
:1006D0002220704738B50400002300222821200082
:1006E0006569A8470023002214212000E568A84777
:1006F00001224B21200000F058F8206802792921BE
:10070000200000F052F800224B21200000F04DF8AC
:10071000206802792921200000F047F801224B21AE
:10072000200000F042F8206842792921200000F0E2
:100730003CF831BDFEB507000C0015001E008DF819
:1007400005408DF806508DF80460089800906B46BF
:1007500001220F213800D7F808C0E047FEBD38B5A8
:1007600004000023002209212000A568A84731BD0C
:1007700038B50400002300220A212000A568A847FC
:1007800031BD70B504000D0000232A00D2B20B2148
:100790002000A668B04770BD38B5040000230022D1
:1007A00010212000A568A84731BDF8B504000D0050
:1007B000160000233200D2B22900C9B220006769B6
:1007C000B847F1BD70B504000D0000232A00D2B275
:1007D000202120002669B04770BDF8B504000D0047
:1007E000160033002A00D2B2172120002769B8472B
:1007F000F2BD13B5040001AA01212000FFF7EDFFAF
:1008000016BD0000F8B50026002300240025102D99
:1008100080F00681012717FA05F216000A683240B7
:100820001300B34240F0FA800A7912F00302012A61
:1008300004D00A7912F00302022A1FD1D0F808C0AE
:100840005FF0030E2A00D2B252001EFA02FE3CEA0A
:100850000E0CD1F80CE02A00D2B252001EFA02FEB1
:100860005EEA0C0CC0F808C04268AF40BA434F685B
:10087000C7F30017AF403A43140044600A7912F0FE
:100880000302032A14D0C7685FF0030C2A00D2B217
:1008900052001CFA02FC37EA0C07D1F808C02A0003
:1008A000D2B252001CFA02FC5CEA07073C00C460AA
:1008B0000A7912F00302022A1ED12A00D20800EBA4
:1008C0008202176A5FF00F0C15F00702D2B2920095
:1008D0001CFA02FC37EA0C07D1F810C015F0070229
:1008E000D2B292001CFA02FC5CEA07073C002A0024
:1008F000D20800EB8202146207685FF0030C2A0042
:10090000D2B252001CFA02FC37EA0C0791F804C07C
:100910001CF0030C2A00D2B252001CFA02FC5CEA62
:1009200007073C0004604A6812F4403F76D000227A
:100930000092DFF8F020176857F4804717601268BC
:1009400012F480420092009A374F2A00920857F81A
:1009500022C05FF00F0E15F00302D2B292001EFA11
:1009600002FE3CEA0E0C314A904201D1002423E001
:100970002F4A904201D101241EE02E4A904201D11B
:10098000022419E02C4A904201D1032414E02B4A9E
:10099000904201D104240FE0294A904201D105245C
:1009A0000AE0284A904201D1062405E0264A9042F6
:1009B00001D1072400E00824E4B215F00302D2B20A
:1009C0009200944054EA0C0C2A00920847F822C086
:1009D0001E4C22689A434F68FF0200D51A432260DA
:1009E0001B4F3C689C43D1F804C05FEA8C2C00D5B7
:1009F0001C433C60174A17689F43D1F804C05FEA64
:100A00008C3C00D51F431760134A14689C43D1F8EF
:100A100004C05FEACC3C00D51C4314606D1CF6E6B4
:100A2000F1BD000044380240083801400000024097
:100A30000004024000080240000C02400010024086
:100A40000014024000180240001C0240083C014013
:100A50000C3C0140043C0140003C0140DFF8CC115B
:100A6000086850F4803008607047DFF8C001006803
:100A7000400C10F001007047DFF8B42111688908BC
:100A80008900014311607047DFF8A401006810F08D
:100A90000C007047DFF89821116831F0F001014334
:100AA00011607047624A116831F4E05101431160EE
:100AB00070475F4A116831F460410143116070472B
:100AC0005A49086850F080700860704757480068BD
:100AD000400E10F00100704770B4564D2E68564C11
:100AE000264006430E4356EA82162E602C6834F4E4
:100AF00040341C432C6070BC7047504A1168C908D0
:100B0000C9000143116070474C48006810F00700AD
:100B100070474B4A116831F48041014311607047BE
:100B200048480068800B10F00100704738B500F0AD
:100B300097F800F039F800F0BBF800F0E7F800F0A3
:100B400071F9414C414B424A4249200000F08EF974
:100B50002000FFF70DFE00212000FFF712FE00210C
:100B6000200000F0A7F900F0B7F90025200000F000
:100B7000C3F90F2000900F232A00D2B292B22900AD
:100B8000C9B289B2200000F017FA200000F00BFA79
:100B90002800C0B2902801DA6D1C01E00020050099
:100BA000642000F033FAE1E780B50520FFF7A5FFE8
:100BB000FFF7AAFF0528FBD14FF48040FFF7A9FFFC
:100BC000FFF74CFFFFF751FF0128FBD10023A822BC
:100BD00004215FF48000FFF77FFFFFF771FFFFF74D
:100BE00075FF0128FBD1FFF79BFF0028FBD00020F9
:100BF000FFF750FF4FF4A050FFF754FF4FF40040B1
:100C0000FFF757FF0220FFF737FFFFF73DFF0828E8
:100C1000FBD1114800F00EFA0F2000F011FA002865
:100C200001D000F01BF801BD0000000000380240B8
:100C300008380240043802400080BFFF003C0240F8
:100C40000070004004700040940C0020E31900087C
:100C5000EF1A0008701E0008007A030A72B6FEE759
:100C600080B50B48016851F400710160016851F4CE
:100C700080610160016851F480710160032000F01F
:100C80006BFA0F2000F0DCF900F096FA002002BDAC
:100C9000003C024081B01B4A116801431160116899
:100CA00001400091009901B070470A0482617047C9
:100CB00010B586B018210022684600F09DFA802009
:100CC000FFF7E8FF1020FFF7E5FF0820FFF7E2FF3E
:100CD0000120FFF7DFFF0C4C4FF480612000FFF78D
:100CE000E4FF4FF48060009001200190002002900A
:100CF00000200390002004906946200000F030FBA3
:100D000006B010BD303802400000024000B587B088
:100D10001C210022684600F06FFA3C485FF0204139
:100D200001603B494160002181600021C1600021D8
:100D3000016100214161002181610021C161002127
:100D40000162002141624FF4805181620021C16241
:100D5000002101630021416300218163002141647E
:100D600002210091012101910B2102910F21039198
:100D7000102104911121059100210691002269465C
:100D800000F036FB002801D0FFF768FF07B000BD78
:100D900080B586B01421002201A800F02DFA1D496B
:100DA000086800282BD101200860002000901A4913
:100DB000086850F001000860086810F00100009019
:100DC00000984FF4F0600190022002900020039000
:100DD000032004900C20059001A91048FFF712FD94
:100DE0004CF6B300019002200290002003900320F3
:100DF00004900C20059001A90948FFF703FD07B0F6
:100E000000BD10B50400FFF7C3FF10BD280D002082
:100E1000040100A0800D002038380240001002407C
:100E2000000C024080B50E480E49016000F011FB35
:100E3000002801D0FFF712FF01BD81B00268094907
:100E40008A420BD100210091074A116851F4805168
:100E50001160116811F480510091009901B0704740
:100E6000780D002000300240303802402DE9FC416E
:100E700080460C0015001E0000962B00DFF828208D
:100E8000DFF82810404600F013FB01A800F028FB13
:100E900007000094DFF818309DF804203900404620
:100EA00000F039FBBDE8F3812D060008910400082D
:100EB000651B000880F86D10704701000020704726
:100EC0000149C16570470000BB0E00080149087068
:100ED000704700000000016038B50025A02D0AD23F
:100EE00000200400512C04D20020FFF7EFFF641C07
:100EF000F8E76D1CF2E731BD2DE9F04104002068F0
:100F0000017C94F8380041435FEAC1084546002659
:100F1000676B32002900380000F06EF9BDE8F081FF
:100F20002DE9F84304000D0016002068077C2A0014
:100F3000D2B2606B3900C9B212FB01F189B25FEA2B
:100F4000C108414689B200EB0109CDF800903B0091
:100F5000DBB23200D2B200212000FFF7EBFBBDE88C
:100F6000F1832DE9F0410400002594F8386094F8ED
:100F70003970206890F811803A00D2B22900C9B2C5
:100F80002000FFF7CDFF6D1C7F1C29003000C9B287
:100F9000C0B2814205D239004046C9B2C0B28142D6
:100FA000EAD3BDE8F08110B504002000FFF7D9FFB7
:100FB0002000FFF7F1FB10BD2DE9FC4105000E00FC
:100FC00017009846089CE01980B2009018EB0603C1
:100FD0009BB23A0092B2310089B2280000F09AFB2D
:100FE000002811D0200080B200280DD000200090F1
:100FF00043469BB23A0092B2310089B2280000F019
:10100000FAFB7F1C641EEDE7BDE8F38170B50400B8
:1010100000F062FC0500260016F1010F02D0044822
:101020000078361800F058FC401BB042FAD370BD6F
:1010300010000020014908607047000004000020F3
:1010400010B504004FF47A700D490978B0FBF1F047
:101050000C490968B1FBF0F000F099F8002801D0C4
:1010600001200CE0102C09D2002221005FF0FF309B
:1010700000F078F804480460002000E0012010BD72
:1010800010000020040000200000002010B410F028
:101090000702DFF808311C684FF6FF010C4054EAE4
:1010A0000224DFF8FC100C431C6010BC7047DFF812
:1010B000EC000068C0F302207047000010B402008A
:1010C00052B2002A05D40C01364B020052B29C5495
:1010D00008E00A01344C03005BB213F00F03234411
:1010E00003F8042C10BC704770B4030013F007041D
:1010F000D4F10700052801D3042001E0D4F1070052
:10110000251D072D01D2002600E0E61E012515FA57
:1011100000F0401E0140B14015FA06F6761E32403E
:101120001143080070BC704710B50400601EB0F198
:10113000807F01D301200EE0611E1C4801600F2159
:101140005FF0FF30FFF7BAFF002119480160072167
:1011500018480160002010BD10B504002000FFF702
:1011600095FF10BD2DE9F04180460C0015000026CA
:10117000FFF79DFF07002A0021003800FFF7B4FFAA
:101180000100404640B2FFF799FFBDE8F08110B57D
:1011900004002000FFF7C8FF10BD00000CED00E0C8
:1011A0000000FA0500E400E018ED00E014E000E0C3
:1011B00018E000E010E000E081B0002000900C4951
:1011C000086850F480400860086810F4804000907F
:1011D0000098002000900749086850F0805008608F
:1011E000086810F080500090009801B0704700BF70
:1011F000443802404038024062F30F2262F31F423B
:10120000401810F0030308D0C91A1FD3DB0748BFEA
:1012100000F8012D28BF20F8022D130030B4144629
:101220001546103928BF20E93C00FAD8490728BFE5
:1012300020E90C0048BF40F8042D890028BF20F8A1
:10124000022D48BF00F8012D30BC7047C91818BFE7
:1012500000F8012DCB0728BF00F8012D70470000D2
:1012600030B4046891FAA1F3B3FA83F30325DBB237
:101270005B009D40AC4391FAA1F3B3FA83F3DBB278
:101280005B0012FA03F31C43046030BC704710B4D7
:1012900044688C4302FB01F31C43446010BC70475C
:1012A00030B4846891FAA1F3B3FA83F30325DBB277
:1012B0005B009D40AC4391FAA1F3B3FA83F3DBB238
:1012C0005B0012FA03F31C43846030BC704730B4F7
:1012D000C46891FAA1F3B3FA83F30325DBB25B0090
:1012E0009D40AC4391FAA1F3B3FA83F3DBB25B0008
:1012F00012FA03F31C43C46030BC704730B4046A74
:1013000091FAA1F3B3FA83F30F25DBB29B009D4062
:10131000AC4391FAA1F3B3FA83F3DBB29B0012FA68
:1013200003F31C43046230BC704730B4446A0B00C2
:101330001B0A93FAA3F3B3FA83F30F25DBB29B00E6
:101340009D40AC430B001B0A93FAA3F3B3FA83F35B
:10135000DBB29B0012FA03F31C43446230BC7047BB
:10136000F8B505000E0000200024316891FAA1F1C3
:10137000B1FA81F73068F840002836D03168012092
:10138000B84001400C00002C2DD07068012802D01C
:101390007068022809D1B26821002800FFF780FF99
:1013A000F26821002800FFF772FF3269210028004F
:1013B000FFF78DFF7068022810D194FAA4F0B0FAFC
:1013C00080F0082805D2726921002800FFF796FFF7
:1013D00004E0726921002800FFF7A7FF726821006E
:1013E0002800FFF73DFF7F1CC4E70020F2BD00008E
:1013F00070B504000D001600002C01D1012027E07B
:1014000094F84900002805D1002084F84800200005
:10141000FFF7F7FC14F10801206800F063FAA268F6
:101420002900206800F098FA236BA26831006068F8
:1014300000F0AEFA2168A06851F8202052F00102B5
:101440002168A06841F82020012084F8490000208C
:1014500070BD10B50400002C01D101200AE06079B4
:10146000002804D1002020712000FFF7E6FC0120B5
:101470006071002010BD000010B40400002010BCFA
:1014800070470021016009498160C16001614161CB
:10149000002180F82310002180F8261000218161AE
:1014A000FF2180F8241080F8281070477914000874
:1014B0002DE9F04180460C0015001E00069F4046B5
:1014C000FFF7DFFFC8F80840C8F80C50C8F81060F4
:1014D000C8F814704046FFF742F9BDE8F0810000FB
:1014E000010014200870DFF8040070471400002089
:1014F00010B504000020A4F850000020A4F8540007
:101500004FF6FF70A4F85200A4F856002000216B9B
:101510004968884710BD2DE9F04104000D00160010
:101520001F00DDF818800020A065E762656384F87D
:101530003860002084F83900002084F86D00002015
:1015400084F89100002084F88D00012084F8920036
:10155000012084F89300C4F830802000216B0968D2
:1015600088472000FFF7C4FF2000FFF7A9FC0020F8
:1015700084F87000BDE8F081F0B4026890F838108B
:1015800089B2C9008187137C9BB2DC00448790F844
:1015900039309BB2DD00C58790F83830567C90F822
:1015A000397017FA83F7BE4204DA547C90F8391088
:1015B000641A23009BB2D900C38FA0F84030B0F862
:1015C0004030A0F84230B0F84230CB18A0F842309A
:1015D000938AA0F84430D38AA0F84630F0BC704714
:1015E0001CB50400B4F856000090B4F85230B4F8BA
:1015F0005420B4F85010200000F08CF8002803D1DB
:10160000002084F88C002AE0012084F88C00B4F8D3
:101610004810B4F85000814203D2B4F85000A4F846
:101620004800B4F85210B4F84A00814203D2B4F82A
:101630005200A4F84A00B4F84C10B4F854008142A7
:1016400003D2B4F85400A4F84C00B4F85610B4F81F
:101650004E00814203D2B4F85600A4F84E0013BDE8
:1016600010B504002000FFF787FF10BD10B504007F
:101670000020A4F84800B4F84400A4F84A00B4F8E4
:101680004000A4F84C00B4F84200A4F84E0020003A
:10169000FFF7A6FF10BDF8B504000D0016001F00EF
:1016A0009DF8180000903B009BB2320092B22900D6
:1016B00089B2200000F08AF8F1BD30B404001500B2
:1016C0000800ADB280B2854211D225001800ADB23B
:1016D00080B2854201D201201AE01D001000ADB297
:1016E00080B2854201D2012012E0002010E02500E6
:1016F0001800ADB280B2854209D21D001000ADB213
:1017000080B2854201D2012002E0002000E00020EA
:1017100030BC70472DE9F04180460D0016001F00D7
:10172000069C23009BB2320092B2B8F84E10B8F873
:101730004C00FFF7C2FF002801D1002009E03B0068
:101740009BB22A0092B2B8F84A10B8F84800FFF7E6
:10175000B4FFBDE8F081F0B4040025882E000888AD
:10176000861937002800BFB280B287420AD22F0004
:101770001800BFB280B2874203D21800401E060094
:1017800000E015002F001800BFB280B2874201D3DD
:10179000002019E017003000BFB280B2874201D3A9
:1017A000002011E02F001000BFB280B2874200D2AB
:1017B00015001F003000BFB280B2874200D21E0069
:1017C0002580761B0E800120F0BC7047F8B5040020
:1017D0000D0017001E00E08F3F1A9DF818000090C2
:1017E00033009BB23A0092B2290089B22000D4F8AB
:1017F0002CC0E047F1BD7FB50500089C95F88C0032
:10180000002868D0BDF80C00002864D0BDF80C009A
:10181000022820DB2000C0B202280CD1BDF8041041
:10182000BDF80C00091AADF80410BDF80400401C06
:10183000ADF804000FE02000C0B203280BD1BDF8C2
:101840000810BDF80C00091AADF80810BDF8080022
:10185000401CADF8080014F001042000C0B20028BC
:1018600016D1BDF80810B5F84C00814233D3BDF84D
:101870000810B5F84E0081422DD2B5F84A30B5F8BF
:10188000482003A901A8FFF766FF002816D122E02F
:10189000BDF80410B5F8480081421CD3BDF804100F
:1018A000B5F84A00814216D2B5F84E30B5F84C2052
:1018B00003A902A8FFF74FFF00280CD02000C0B2F8
:1018C0000090BDF80C30BDF80820BDF804102800C9
:1018D0002E6BB668B0477FBD01480068704700BFF7
:1018E000840D002070B40200086852F820305B08B4
:1018F0005B00086842F820308868082801D140233E
:1019000000E000234C681C4388680443C868044313
:101910000869044348690443C8690443086A0443E6
:10192000486A0443886A0443C86A04430D6B25432C
:1019300088690543C86B0543254C54F4806454F40E
:10194000E024086852F82060A6432E43086842F855
:101950002060002070BC704710B403000C68486819
:1019600054EA0014886854EA0024C86854EA004421
:101970000869401E54EA00544869801E54EA006415
:101980008869044303EB82004460002010BC704768
:1019900030B40400B3F5804F13D154F822500D48F1
:1019A000054008680543486855EA0015886855EA07
:1019B000002588690543C86855EA004544F8225067
:1019C00003E07FF0704044F82200002030BC7047F4
:1019D0007FFB08000000F0CF816170470A0482613C
:1019E0007047F8B504000D0016001F002800C0B2B3
:1019F000282836D029283ED02A2839D02B2834D080
:101A00002C282FD02D283BD040283AD0412839D03F
:101A1000422838D0432837D0442836D0452835D0FE
:101A2000462834D0472833D0482832D0492831D0EE
:101A30004A2830D04B283BD04C284BD04D284AD098
:101A40004E2845D04F2844D0502845D0512844D066
:101A5000522843D0532842D0542841D0552840D052
:101A600040E042E000BF00BF3FE000BF00BF3CE0FD
:101A700000BF00BF39E03000C0B2FFF7C7FA34E062
:101A800033E032E031E030E02FE02EE02DE02CE0DA
:101A90002BE02AE029E03000C0B2002804D15FF03A
:101AA000C0412D48016002E02C492B4801601CE038
:101AB0003000C0B2002805D14FF480612848FFF7FC
:101AC0008DFF04E04FF480612548FFF785FF0CE0AF
:101AD0000BE00AE009E008E007E006E005E004E0CA
:101AE00003E002E0012084F827000120F2BD2DE987
:101AF000F04104000D0090461E002800C0B21428DA
:101B000015D0172806D0182819D0192818D0202841
:101B10000ED016E037004046C0B2002806D0387814
:101B200000F014F87F1CB8F10108F4E70BE00AE0BC
:101B30004246D2B24A212000FEF737FE03E002E01F
:101B400001E0002000E00120BDE8F08102490968C1
:101B50000870704700000000880D00200000016040
:101B6000000002402DE9F043079C170017F007071B
:101B70005FF0010E1EFA07FE5FF0000C002690F8E1
:101B80009250022D00DAF44690F89250012D00D0C8
:101B9000764690464FF6F87515EA080805682D7CDC
:101BA00018FB05F5D0F83490A8461FFA88F8C14410
:101BB00088461FFA88F8C844A1465FFA89F9B9F146
:101BC000000F15D198F800905CEA090988F8009098
:101BD00098F8009096EA090988F8009018F1010831
:101BE0005B1E99461FFA89F9B9F1000FEAD132E07C
:101BF00098F800905CEA090988F8009098F800903D
:101C000096EA090988F800907F1C17F007075B1E09
:101C1000B9465FFA89F9B9F1000F13D1B0F83A90DB
:101C2000C84490F89290B9F1020F02DA5FF001090E
:101C3000CC4690F89290B9F1010F06D05FF00109FF
:101C40004E4602E05FEA4C0C760099461FFA89F98D
:101C5000B9F1000FCCD1BDE8F08300001815E2FE09
:101C60000A15E9152B15241581159615A415A61529
:101C7000C415A115D115D5158415C8151015DA157B
:101C8000F4152515F6155A15F5150015F7159F15B8
:101C9000F815891540155015901500158415F11586
:101CA0009F15F2150015F315A015AC19FF000000E3
:101CB00030B4002412E050F8043BDA0744BF4B4430
:101CC0005B1E091F042943F8044BFAD21A468D07FC
:101CD00044BF1C80921CCB0748BF147050F8041BF3
:101CE0000029E8D130BC704710B500F013F80200AD
:101CF00000230024E4431068A04203D01100022016
:101D0000ABBE13605068A04203D0111D0220ABBED1
:101D1000536010BD004870470800002010B5034A0A
:101D20007A440832024C7C44A41D03E040000000C9
:101D30006000000004E01168101D1144884702464D
:101D4000A242F8D110BD00004EF68851CEF200013B
:101D5000086840F470000860BFF34F8FBFF36F8FC7
:101D60004FF00170E1EE100A7047000045FFFFFFE1
:101D7000780D0000140000200000000023E9FFFFA0
:101D800014000000B8000000000000200000000067
:101D900000F00DF8002801D0FFF7C0FFAFF300807E
:101DA0000020AFF30080FEF7C1FE00F002F8012032
:101DB000704700F001B800000746384600F002F80E
:101DC000FBE7000080B5FFF78FFF024A11001820E3
:101DD000ABBEFBE7260002000548014603B4684697
:101DE00080F30988AFF30080FFF7AEFFFFF7D0FF65
:101DF000A5EDF5FE00010A0A14C80A3C00127A009B
:101E000000041E5014140000A000A0000348016844
:101E1000034A127889180160704700BF840D0020C2
:101E200010000020FEE7FEE7FEE7FEE7FEE7704752
:101E30007047704780B5FFF7E9FF01BD1000000053
:101E40000024F400FFFFFFFFFFFFFFFF0100000081
:101E50000148804701480047611E0008D91D00085D
:101E60000249086850F470000860704788ED00E08F
:101E7000611600086D160008971600081815AD19B0
:101E8000FF0000001815C0160419FF001815C01631
:101E90000219FF001819FF00FFF7FEBFFFF7FEBF92
:101EA000FFF7FEBFFFF7FEBFFFF7FEBFFFF7FEBF66
:101EB000FFF7FEBFFFF7FEBFFFF7FEBFFFF7FEBF56
:101EC000FFF7FEBFFFF7FEBFFFF7FEBFFFF7FEBF46
:101ED000FFF7FEBFFFF7FEBFFFF7FEBFFFF7FEBF36
:101EE000FFF7FEBFFFF7FEBFFFF7FEBFFFF7FEBF26
:101EF000FFF7FEBFFFF7FEBFFFF7FEBFFFF7FEBF16
:101F0000FFF7FEBFFFF7FEBFFFF7FEBFFFF7FEBF05
:101F1000FFF7FEBFFFF7FEBFFFF7FEBFFFF7FEBFF5
:101F2000FFF7FEBFFFF7FEBFFFF7FEBFFFF7FEBFE5
:101F3000FFF7FEBFFFF7FEBFFFF7FEBFFFF7FEBFD5
:101F4000FFF7FEBFFFF7FEBFFFF7FEBFFFF7FEBFC5
:101F5000FFF7FEBFFFF7FEBFFFF7FEBFFFF7FEBFB5
:101F6000FFF7FEBFFFF7FEBFFFF7FEBFFFF7FEBFA5
:101F7000FFF7FEBFFFF7FEBFFFF7FEBFFFF7FEBF95
:101F8000FFF7FEBFFFF7FEBFFFF7FEBFFFF7FEBF85
:101F9000FFF7FEBFFFF7FEBFFFF7FEBFFFF7FEBF75
:101FA000FFF7FEBFFFF7FEBFFFF7FEBFFFF7FEBF65
:101FB000FFF7FEBFFFF7FEBFFFF7FEBFFFF7FEBF55
:101FC000FFF7FEBFFFF7FEBFFFF7FEBFFFF7FEBF45
:0C1FD000FFF7FEBFFFF7FEBFFFF7FEBFEC
:0400000508001DD9F9
:00000001FF
