:020000040800F2
:1000000090110020F9A20008CDA20008CFA200089C
:10001000D1A20008D3A20008D5A200080000000069
:10002000000000000000000000000000D7A200084F
:10003000D9A2000800000000DBA20008DDA2000831
:1000400045A3000849A300084DA3000851A30008D8
:1000500055A3000859A300085DA3000861A3000888
:1000600065A3000869A300086DA3000871A3000838
:1000700075A3000879A300087DA3000881A30008E8
:1000800085A3000889A300088DA3000891A3000898
:1000900095A3000899A300089DA30008A1A3000848
:1000A000A5A30008A9A30008ADA30008B1A30008F8
:1000B000B5A30008B9A30008BDA30008C1A30008A8
:1000C000C5A30008C9A30008CDA30008D1A3000858
:1000D000D5A30008D9A30008DDA30008E1A3000808
:1000E000E5A30008E9A30008EDA30008F1A30008B8
:1000F000F5A30008F9A30008FDA3000801A4000867
:1001000005A4000809A400080DA4000811A4000813
:1001100015A4000819A400081DA4000821A40008C3
:1001200025A4000829A400082DA4000831A4000873
:1001300035A4000839A400083DA4000841A4000823
:1001400045A4000849A400084DA4000851A40008D3
:1001500055A4000859A400085DA4000861A4000883
:1001600065A4000869A400086DA4000871A4000833
:1001700075A4000879A400087DA400080000000010
:1001800081A4000885A400085A2939E84A28422A8F
:100190005A6B5A6B5B8C626941E731E841E741E792
:1001A0003A2A52062186320952494A2941E631C685
:1001B0003A0839E73A2A4A2842084A294A2839C4DB
:1001C00029C6298429E73A08420941E739E631A5D9
:1001D00031E631C753CF73EE5A0739A529C85224E7
:1001E000186321854B8C49A4218429E841E739C54E
:1001F000206649E629C8420731C84A4A524A5A6C21
:10020000626831C529A631C629A529C841C521A7DB
:10021000426B5A6A4A2839C631A639E731A531E816
:1002200042084208420839C6298321A5298321A60C
:1002300031C739E739C529A529A639E629A5426B71
:10024000524C6A6A41832183104208221043198468
:1002500018631842118529A52183186539C531C74E
:1002600041E729C8526B5249526C626931A4218519
:1002700031C5218321A631C639E84A6C62694A2812
:1002800031C41864320739A529C742084208420719
:1002900031A421A631E631A421A529C639E731A52B
:1002A00029A631C7420731A631C62066538B386371
:1002B00019841842104108431863186318421064E7
:1002C00021841862106539C631E739E629C85A6BAE
:1002D0005A6A5A6C5A4831A421A529A52062106493
:1002E00029C63A08526C624839E631A0082111A7A4
:1002F00039A4218531E73A0841C6298429E85248C2
:1003000031A531C629A631A529A529C631E842075C
:1003100031A529A418632A07286319841863184291
:1003200010432184218318621043186310421986F8
:1003300039C739E739C529E8538C638C5A494A06CD
:1003400029A529C631C52982106421A531E84A4A68
:100350005A4939C529C31042082331C4186429A653
:1003600031E731C5206321C95A6A31A639E629A58A
:1003700029A529A429C739E8420831C5298418626A
:100380001984198429A4218318631063218421848A
:10039000206310421042104321A74A08420841E658
:1003A00031E8526C6B8B520629A421A531C631C6A7
:1003B00029831063218529C7424B5A4939A53A0739
:1003C0001864204011A5206421A529A5298418635B
:1003D00019A95249318531C6298429A4218429E7E4
:1003E00039C7420941E6298420631863218529C55C
:1003F000298421831864218421A521841842102294
:10040000104321A74A294A2A522952494A4C638B50
:100410005206298429A539E731C63183106421A504
:1004200031E84A4B524939C64A49286429A418453B
:1004300031A421A529A52063186210664206206414
:1004400029A521842183186429C731E742094A0676
:10045000298420631043218529A5298420631863FA
:10046000218429A52984204108211043218652296D
:100470004A4B5A6B638A420A5A6B520731C631E7BC
:100480003A0731C739A4218539E6422A5A4A5249E6
:1004900041C74A6A41A421A739A429C629A529A48C
:1004A000186420621043218418431984218418633E
:1004B000198421A63A084208420731A4218318630F
:1004C00018632185218318621063218421A529A541
:1004D00020620821084218654A0A5B8C5B8D73AB69
:1004E00039E94A294A294A073A08420839E839C508
:1004F00031E95249524B626A524A41C74A4A5A2527
:1005000021853A0729A739C5218321A4298420639D
:1005100018631043218421841863218319863A29A2
:1005200041C529C631A42184186318631863186370
:10053000184210431984218529C629831042084294
:100540001865422A63AD638D73AB39E942084A4AA4
:100550005A6A4A09420739E839C6320A524B5A6B7D
:100560005A6A524941C6424A524619842A0949E602
:100570003A06218531A631C5218421831985298434
:1005800029A42184218310653A0839A4198421847F
:1005900021842063186310421042104110421864F5
:1005A000218531C739C4184210421986420B63AD08
:1005B0006B8C638A3A094209524B5A6B5A2941E7BC
:1005C00039E731A529E84A4B5B8B5A4A4A0839C6B4
:1005D0004229424A286429C9524839E839C839862B
:1005E00039C52984218429C731A529A529842063F7
:1005F000104329C6298210421863186418631863CF
:1006000018631042104108221063186529C741E59C
:100610002063184319A741EA63AD6A6C638A422AD2
:100620004A2A5A6B5A6B524941E631C6298421A5A0
:100630003A2B5B8D626A41E631C63A0839ED51A624
:1006400031E95A6B49E84A49318529A4218421A519
:1006500029E739A429C6298418631042198418622D
:10066000102110421863186319831984186210420C
:1006700008221042104421C639E52064218421A7B4
:1006800049E8538D638C638B524A524B5A6B5A6ABA
:10069000524941E631C52184186429E95B8C626ABC
:1006A0004A0631C531E731CB7A4841E95B8B5A497B
:1006B0004A4D39A630631864218531E839A429C62A
:1006C00029831863184210431842102110421863FE
:1006D00018642184218421831042102210210842B1
:1006E000198529A52184218421A639C7426C638DEF
:1006F000638B5229526B5A6B5A494A4941E739C5B3
:100700002184218531E85B8B638B5A4731C529C62B
:1007100031C87BC94A29538B626B522A624829A38C
:100720000843186429E7318421A5206319831863DD
:1007300010431842104210421863198529842184FD
:10074000206310420842104108221043186321849C
:100750002184298631A53A2A5B8C6B8B52294A2A3F
:100760005B8B5A284229420841E631A529A631E887
:100770004A4B526B5B8A39C529A421E96C4D524919
:10078000526C63AC62694BA810630822104329C7FE
:1007900031A41984186318632063186318631862FE
:1007A000104210631985218421841863104210427D
:1007B0001042084210421042186321842185298486
:1007C00029E84A4C6B8B4A0839E8526B5A2839E7BA
:1007D00039E8420741E629C73A09524A4A2A5A6B80
:1007E00049C429A421ED7D914A4B526C638D7BCE87
:1007F0005A4C31A30821084219A631A4206318439A
:1008000018631984206318631863106318642185C2
:10081000298421831842104210421842104210428B
:100820000822106310421065286429A63A2B626BD7
:100830004A0739C63A4B522839C529C742294A07BF
:1008400029C639E9526A42084A2941A4218319D0AC
:100850009473520C526C63AD6BEF738B5180082113
:100860000822198531A52063184210631984218359
:10087000186318421063198421A529A42063184223
:1008800010421022186210421042104110620822D9
:1008900010452984218429E95A6B4A0731C73A2B2C
:1008A000524839C42185422A4A0731A531C84A2A0B
:1008B00049E73A0839A421831A33B5B679AB626C9B
:1008C00063AD6BCF7BCC51A208221042186421A6E5
:1008D00031A418420842198420631863104210633F
:1008E0002185298421A421831042104208421863E3
:1008F000104210421042104108221044318421A4B9
:1009000021A74A4941E731E84A4B5A6839C4206473
:10091000320949E629A529A6422941C631E839C547
:1009200029831A34B4739B895B8E6BCE73AD73CEFF
:10093000638608431863104219A639C52062104225
:1009400019842063104208221063218420631864F4
:1009500021831021104108221063186210421042B6
:1009600010420822186431A529A419863A0731A635
:100970003A094A4A524839C4186329C731A5218423
:10098000218531C631C631E841E631A411F08C121F
:10099000A42C63CF7BEF7BCE6BCF73AC204318636B
:1009A0001022118531C5218318631864206310213A
:1009B0001042104321842063104218621041084104
:1009C0000822106318621042104210421043218422
:1009D00031A52984186531C6298642284A2952281A
:1009E00039C4184219A42063198421A5218529C678
:1009F000320941E739C50A0F73D2A59073F084100C
:100A00007BCE73CE83EE418318431021106429A45A
:100A1000218429A42184218310431862104321A436
:100A20001862104210421041082108221043184257
:100A300010421042104110442185318421841864F1
:100A400029C5218742294A083A0941C51842186335
:100A50001042198421A4186321A531E73A0739A669
:100A60001A506BB08DB37C318C108C10840F840DB8
:100A700049A3118408200863186421A639C521847C
:100A8000218421A529A4186429A4184210421042E7
:100A900010210822084210421042084218621042F7
:100AA0001064218531A52184218429C521A74229EB
:100AB0004A0839E839E5184210421043218421835D
:100AC0001022198531C749E629C423D06BD08D96F1
:100AD0008C73943194529472840E61C76BAD6244EE
:100AE0002040084321C741C52184218529C631C53D
:100AF00029A629A4184110421862102108210821B2
:100B0000104210420842104318631984218539E8C5
:100B100031C529A531C631E84A294A294A2839C4AC
:100B200018421042106429A520631021118431C697
:100B3000420731E7441174128D9694349C739C746F
:100B4000A5B48C10638F8C31B5B37A05102321C600
:100B500039C41863198529C639C631C731A418416B
:100B600010431862104108211041104218411042F0
:100B700010431985298421A54A4A522739C631C70D
:100B80003A0942084A2A52493983104210421985CB
:100B900039E731831021106429C631E962497C515B
:100BA000A59394549393A473A596B5D58BAD6C0F70
:100BB0008593AD916BCF6A6939C731A31842106430
:100BC00029A531A531E731A418421043186210421B
:100BD0001042104210431862104210642184218494
:100BE00021A6424B5A4941E631C639E842083A0942
:100BF000524930621042104221A63A0839A410210D
:100C000011842187526C842B6D929C5195958BB3E6
:100C1000A474A594B5D163AE73F1ADF6ABCA5B8C89
:100C200095915A2A3183082108432184218531C6B0
:100C30003183186210421042104210431842104390
:100C40001863104210642184186429A6320A5228BD
:100C500039C631A429A639E631C7420720411042DE
:100C6000104329C7420939C4102110631864325057
:100C700084339D949C7295948BD2ADB5A5D5A44A2E
:100C80005BF18455C5F68A4C6B90B46B5A2531A63E
:100C9000306108221862106321A629832063104165
:100CA000104210431863184210431063184218642E
:100CB0002063104429A729A631C629A521831984B8
:100CC00029A529A4218310411043186429C742088B
:100CD00039A3102110631866426D8475AD95AC720E
:100CE0008C738C33ADD5B5F58BCC7C339DB8C5D327
:100CF000624C85969A665A4629EC7BCA39A41062E2
:100D000008421064286418620821106429C52183F0
:100D1000104108410821106318631842106421A78C
:100D20002983218421841863218421A5206208213C
:100D30000842198429A531C739E6206208211062CA
:100D400019C53A2B8DD6B5B5A5959414ADB4BDD6BD
:100D5000BDB49C339C32A5D8BC4E526EAE114A280D
:100D6000320A526C746F73C9206200421043104201
:100D7000198531C63A0841E62983186210421021CC
:100D8000104218631042198421A639A5206310432C
:100D9000104321A5298418410001086429C631C6E1
:100DA00031C631A418410822186329842A0D95B64A
:100DB0009DB5ADB6A436D5B4BDF7AC52A5949C5341
:100DC000B5F8B38B6BD4C46B42273A6C6A6B842B37
:100DD00073CB62093022102121C74A4A524A4A087D
:100DE00041E731C629A52063186310211042104342
:100DF0001864218641E839A41862104321A5218393
:100E000010410001118531C739E629842062102183
:100E100010421043206311CC8474AD96B5D5AC3428
:100E2000BD96BDD57C339C739C76B5F98A6D74797B
:100E3000A38A49E6526B53D3A3AC6A09626F8981D6
:100E400019E96BAC626A4A28420841E631C629A515
:100E50002983104100011042104318632186522952
:100E600041E629841042186318420820002219A57F
:100E700031C639C518621041084318621042186320
:100E8000322F8C3195D4A5D49C749C749C317BF208
:100E900094529DD7C6355A6F96177A6A41E8626AAE
:100EA0007D978A4B4A4C4A2B7A696BEF6A6B524AA0
:100EB00052294A2839E631A42183186218410021B9
:100EC0000821104210631985522A524939A4186228
:100ED000104108210000084321C631A521831021BB
:100EE000002108442183104210653229642E9C4E53
:100EF000ADD184738C307BF29C339C53A618C62FE3
:100F000053F3B612638A420953B09DF373A84BAFF3
:100F100073894B8E7BCD5A6B5A6B524A4A2839E6FD
:100F200031C410441844182210210821082210420C
:100F30001864522B626B49E5206208210000000012
:100F4000084431C631A41842080000211043186338
:100F50001042104332098C516A0E9DB06C108411FE
:100F60008C32A5959C74ADF9BC6C75B7CD8D6A6853
:100F70004A2B6434AD8E6B8B758F6BA9426C6BCD35
:100F8000638B5A6B5A6B522949E6206321A721854E
:100F90001042082108210821104210445A4B626B6C
:100FA00052062983080000000021086531E73183DB
:100FB000104100000842104210421042104431F229
:100FC000942E39EC63EE74528C329413A5B59DB512
:100FD000BE19B3CD9E39BBCB6A29526D85969BAAAB
:100FE0004392A5D162684A6D73EE6B8C626B638A23
:100FF0004A2841C421A639E529C4198200010821E3
:10100000082110421044624A5A4A524939A310003A
:101010000000002210653A072862102100011043E9
:10102000102108221042102312726B8A3A0B5BCEF9
:101030008DB39C529C11ADD4A5B6C617938EB659EC
:1010400093CD522B5392ADD3624A5C34BDB361C68B
:10105000526C73EE73AD6B8C5A4C522729A7420821
:1010600041E62984204108210821104310421064E0
:101070005A4A4A295B8B49E510200000002210647F
:1010800031E52062082108221983184210421042DB
:10109000082023EE4A064BB08452A5949C739471A9
:1010A000A5D5B5B6CE337B8FB6587C0E424B53F6E2
:1010B000BDAF5A6B7DB6B4528224438D7BEF83EE75
:1010C0006BAB63AA39C63A29420841E63064100185
:1010D000082108221984184219855A294A2A5BAD29
:1010E0005A26204000000022186421831041082164
:1010F000106429A420631863104108034A6831EB87
:101100008C739D939C73A455ADB4A5F6B5D7CDF063
:101110009412CE54740B4A6B6598BC0C638FADD699
:101120009C529389424E7C2F83ED73AD6A4729C848
:101130004A48524851E72861002108210842198491
:10114000218321A652295A6A5BAD5A493981000090
:1011500000221863184208210821106429C629A614
:1011600029A41842084749E83273A5B49D94A59470
:10117000A475BDF6B5F7B5D7C5CF7C35D60F6BAA2C
:1011800053CE8DD9ABAC6C15C5D49C71942E5A6FCF
:101190007C317BCE7BCE51E84209522A5A49520516
:1011A00018200021082108421864218421A64A2A17
:1011B000626B638C626A41A3000000021042082047
:1011C00000010841084321A639E739A4186209C97A
:1011D00039CA74349C75AD94ADB5A596BE18BE17CA
:1011E000B5D8C46F73D7D5CE622A5BD2BE387B8C9C
:1011F0007DB9C5B49C52945163B18C5073AF726B7E
:101200005A294A2A522A522A49A40841084210411E
:1012100008421063186421A74A2B638C638C626AAE
:1012200039C30800000108210000082110411022E4
:1012300019A539E739C4186322074A0A945394540C
:10124000A5B59C76B476B5D7C5F6B5D9BBF183FA0A
:10125000D46D5A0A5C17CE555A6DAE39B5B49C722E
:101260008C326BF19C307BCC6A695A495A4A5A4A93
:10127000520931C5218210421042082218631863B6
:1012800019865A6C6B8B524B5A4831A4184108216D
:1012900008210001084210432061118531E739C55A
:1012A000218431E96BAD84719432A4328452AC73E1
:1012B000B595BDF6BDF9B3F285BBBC2C524D85F991
:1012C000D60E6392CE37B5B49C728C507C32945358
:1012D0006A4D62694B8B6B8A5249420629A531845B
:1012E000206318621043198420631865638C638B34
:1012F0004A2A522629A52984206310420822106414
:1013000021A52183118529A531C521863A2B5BF0C2
:101310007C31842F9D90840E95CFBDF4B5D7C5F94F
:10132000BBD09E59AC0B4A4FB659DC2C7418CDF784
:10133000B5949C7294507C33A5B15A29538B73CDCC
:10134000724A524941E5218429A62063218318630A
:10135000218420631044626B5B8A420841E629C8FD
:1013600041E631C520631042198531C629831984AD
:10137000218529A52987526B4A6F7BD184107C5522
:1013800093ED6D90AE15B594BE19C3F2BE599B8A0C
:101390005394CE3ABB8F7DBAC617B5B49C7393EF06
:1013A0007413ADB062483A719BF06B8C5A4839E5C2
:1013B000198521A6298429A521842184218210430D
:1013C0005A294A2941E739E629EA5228420729835E
:1013D000184221C739C62862118531C52984424A7D
:1013E0004A2B6A4B73EE7BD08BD09C4F645495B5DF
:1013F000C4719E38C413DE587A4A6599CE388BD0B2
:101400009E58BDF7ADB394738BED7C11A4728BA87D
:1014100065B6ADF5AD8E622731C429C629C62985CA
:1014200031C7318421842982102349C639E949E62C
:1014300031C5320A5228422931831043320839C556
:101440002063198639C531A3426A424A73CA5BAD2B
:10145000738D842B747083F3ADD5CDB1BE39C43395
:10146000DE776A6D963AC5D27BD1BE58BDF6A5B37C
:101470009D9383D094118C128BD0BE56C5F6A44E8A
:101480005A063983420629C631A529C739C52184A0
:101490002182082341C639C841E631A529E841E740
:1014A000424939831865422A41C629A631C739C540
:1014B00029E53A484A4C6BCC524973CC642E53EF21
:1014C00073B2BDF7CDCE9E59B475CDF68394BE5B95
:1014D000BC737BB7DE38BDF5A592A5918C738C10DB
:1014E0007BF18C36CE39CE158BAB3A08322A3A2AAC
:1014F000318531A529C639E621842062082339C601
:1015000031C739E6298429A631A53A2831831986BD
:101510004A4A41E739E739E841C63A0942474B8B25
:1015200073AB624C7BEA4B8D5BB07C749D97C5EFCF
:101530007E39B476C5957438D79595B49E1ACDF793
:10154000B5D5ADB5A450946F7C118C308C76CE5A45
:10155000DE569C108C737BAB49E9286429C629A60A
:1015600039E739A42183102331A631C731C6298434
:1015700029A5298429C620631986424939E739E714
:1015800031C841C84A4B4A4B4C2C63EB538C6C110D
:101590006A6A5B8F95B7A477CD91A618BDD7BC7248
:1015A0006C7ADDF09E17D678B5D5ADB5B5B49C7222
:1015B0008BF07C109C518599D639C63AD65AD616EE
:1015C00093AD6A05306329C6298431E841E6298351
:1015D000104329A631E631C629A529A52063106349
:1015E000102219853A2839E739E731C6320C5A09F1
:1015F0005A518473742F5B8C2A4F7C305C128D9807
:10160000BD96C5D08DD7AE19A4117DBABC74C65B8A
:10161000DDF5ADB5A5B9B4339D94945184119431E1
:1016200095F7BE19D65BDE7AC5D69C306B8A204210
:1016300021A5298429E8420731831043298529A55A
:1016400029A529A4218420620822104110643209AE
:1016500041E739E731A6326D59E75BD4B5D8AC74B0
:101660007A2F61EA524D7DB89DD8A5B7B5F36C3697
:10167000B6188C117DD8ADD7D6799C12ADF4B67A58
:101680009D96B5D5A4519C5294509C75C5F8CE59E1
:10169000D65AD6379C2D41CA30221985206321A7FE
:1016A0003A073183102231842184218531A41863C3
:1016B00018410843184108442A0841E8420739E61E
:1016C0003A0A5A496599CE7ACDD59BCB8B885A0771
:1016D0004C16B6178438BDB77BD5B6178BF19DD99C
:1016E000C618D6328475BC54D5B2C656BDD58C74D6
:1016F0009C52A46E6C54C637C639D63AD659BC4EE5
:1017000051A4406110431864218531E731831022D0
:10171000318319841984298418631842198520415A
:10172000084321E83A083A09422839E953D29DDAB8
:10173000D65ACE38BDF2959173AB4273BE578437FB
:10174000BDD78BD3A61693F4B5F9C619CD9095D70E
:10175000A4567BF8C5B5AD92A5B39C74A44F5BD3DA
:101760009DD9CE19CE38CE59AC0B404421C20822A7
:101770001864218421A52983104339A318432184A7
:1017800029841843186329C62841184321C73A09F8
:1017900049E85A6939C863F6CE18D65AD65BDE587E
:1017A000B5D7B4717A4DA6399BD3BE1693F2B5D690
:1017B0008436BE38C639A40FAE17ADAE86159595E2
:1017C0008C33ADB59C549C5162508435B5F7C63A04
:1017D000CDF38C27218420620821106421831863B3
:1017E0002062104341C4184321A529841863218431
:1017F00031E72842218321A639E64A495A4B5A0942
:101800007412BDF6BE18CE3AE79BD5F7C5F7B44FB4
:10181000859ACC2D9E179BD2B5D57416CE37BDF3C5
:1018200073F5CE38BD94B40E8C508433A5B49DB3FB
:10183000A472738B638E9E15A6179BEB4A67218655
:10184000286208221984206208421042104439A4F8
:101850001843218521831863218531E6206429A45A
:1018600021A631C52A4F6B8C73CB73ED9DB38C735E
:10187000AE3BDF9DE67AC5F8C638BDF9DE52645A44
:10188000A3D3B5F38456CDF7B410ADFACE18BDF698
:101890007B8B8474B473A593BD93A4718BA74A6E9C
:1018A000AE179DB6922B41A6286731A41842186442
:1018B000204208420821104431A41863218418638F
:1018C000186321C631A4198639E42185298333910F
:1018D0009C0E7BE9338E740E6BF3826B85DAF7FC1A
:1018E000E679C63BDE5ADF9B8BD8B3D5BE1175981F
:1018F000C5F58437D65ACDD5BDF683D39DD6B5B2BE
:101900009453A5B69C549A696BCE9596BD9569C6BD
:1019100039E519A629A6298310631842104210211F
:101920001044318421831862106318632A083983B4
:1019300019A64206206420632BB3A4729430284A6F
:101940005A6C6BCB180000067D9CFFFEE67BE79C83
:10195000E79BD434C3F3C5F175B8B590861AD65A4F
:10196000B476C634859273D08C319474ADB3A5B17E
:101970006A4A5A6A6454B592518639E521C429A647
:1019800031C418431842106318421044298421833B
:101990001042106310422A2A41C4198639E72042B6
:1019A000118643B3A5949431798331C651E0000088
:1019B000000000056DDCF7BCDE7BDE77C616C413C5
:1019C000BDD09DD8B42FA659DF979479DDF4BD8E94
:1019D0007C117BF294549C52A42B4226324953F141
:1019E0008C3181A529A5298421A531C51842186209
:1019F000106318631043298421831022106310217F
:101A000019E939A4186429A52063118A7C319593BA
:101A100093EB95A8084308010000000000000009AE
:101A2000B679BE3AC5F9CE59B434C58EAE1BABD427
:101A3000D65ACDD39DD9D5D6AC717C0E740F8451B6
:101A40008C30840E5A4839E8424D6A70938621855D
:101A50002984218421A52062186210632183104308
:101A60002863186108221042082109873182104337
:101A7000198421A4198B741184317B8D96595800D7
:101A80000265000000000000000003B6ADD8C618D3
:101A9000CE399D98BBF0B6776C7BCDD49433CF9B79
:101AA000BDF8A3CD73AC73EE83EE83EE73ED6248A5
:101AB00029863A0A6BAD826731C6298418421064C0
:101AC0002062104210431863104328621842082114
:101AD00008210821086420610863104321A529C951
:101AE00074307BCF7BAC85DBC3E07DC000000000A1
:101AF00000000000000AADB5BE39CE149DB7AC128F
:101B0000BDEF86389DB7BE3AD635AE39AC527A6C49
:101B10007BCD7BCD7BEF724A4A2718663A2A63ACAD
:101B20005A0539E521A418421043184210421042C8
:101B300018621043286218631021082108211043FD
:101B400010411184104221A429E853AD6BAC73AB52
:101B50006C35DDCCFBA0000000000000000000019F
:101B60008C71BF9ABDD3ADB5AC34CDB0ADF4CF9EC2
:101B7000EFBBAC0F8C4D6C117C5483D18BCD6BEFD4
:101B80006BAC49E529A539E9526D5A2721E621A414
:101B900018621043218318431862104210432043F7
:101BA00018631041080110421042102119A520416C
:101BB00019C529E8526B63AC5B8C63F6DBD4F86023
:101BC000CC4000000000000000006DD1C67ABD933B
:101BD000A5B69C57BC70AE19D67EEE79BDB59BCD2F
:101BE000622753F39410738C6BEE638C51C639E605
:101BF00031E94A6A626839C519842063106429A4EE
:101C000018631863104110431843186210420821EA
:101C100010421021084221A6286210653A09524B51
:101C2000638D6A6D6BD6DBF9E003FD800000000078
:101C3000000000003D92B657AC7595B68D95A47323
:101C4000AE39CF9DEF9CE67BCDF69C306BAC5A6BEA
:101C50007BCE83CD6BCD522729C631E74A08526827
:101C600039E419842063198631A52063186318624A
:101C7000082318421041084208221862082108432C
:101C800029A6298318632A0B522A638B638C6BD68F
:101C9000D45BC800406000030800000000002C5323
:101CA000BE139DB39E359594ADD5B619DE7BE7DDA9
:101CB000E79BCE39C617B5917BF083D17BCF73CC30
:101CC0005A6A31C631C6424A41C839C419842063B0
:101CD000198529A4206210632183102320631841F1
:101CE0000822104318410821104321A528631984B4
:101CF00029EA626B5A6B5A6E8BF2CC5AC8200000EC
:101D000000061000000000002473CE129D91B5F271
:101D1000A5F495B6B659D67BDF9CEFBCDE5AD659F2
:101D2000C6379C339C759C507B8A4A2931C629C78B
:101D3000320931A6398319841863198421842061FA
:101D40001043218418432984184108421043184243
:101D50001063186318631842186541C7424B626CE0
:101D600063AE7C54C477E1800000000000000000F6
:101D700000001453C6349C55AD93A5F49DF6AD9464
:101D8000C63BDF9BDFBEF7BDEF9BD65AC5D5A595F9
:101D90009C3073AB39E729A421C529C629C63183F4
:101DA000198318431983186421820843218420640D
:101DB00031831042104110421042106420631842D7
:101DC000082218643A494A284A4B5BAE7C54CC0F2F
:101DD000F9E0000000000000000000002456BD945F
:101DE0009C769DB3AE17BD95A3B2C5FBDD96C5FA33
:101DF000E79DF7DDF7BCE679BE19B5D5942F6A6982
:101E000039A421A521E7298529831983184218635C
:101E1000198421841043218421852863106418418A
:101E20000822104210642063184108431865424C90
:101E30005A4A3A2A5B8E73F3CC4CF3C00000000080
:101E40000000000000003457BBF2B5D29D91B5F3FD
:101E500095937C16A5F7720F7A4C8DFAE7BEEFDEEC
:101E6000F7DDE79CDE59BC318B8831C5198839C74D
:101E700031A42063186318631863186421A52063D4
:101E800021842185206321841841082108421043C0
:101E900018631861082321843A4C5A6C638C63CE12
:101EA0006393CF8DAE020000000000000000000030
:101EB0003D98BC33C451A433CD949DB074106C0ACA
:101EC0004C0A080000666C59FFFDEFDEEF9CE659F6
:101ED000BC7259C21063206431C631C418621063E9
:101EE00018642063104321A5298318642185186490
:101EF00029831841082210420843218418621042A5
:101F000021A54BAD73CC6BB083AD7390BFAE57AD15
:101F1000000000000000000000002DD99C739D927D
:101F20008435BC77B470840C4A296201000000003B
:101F300000016C59F67CE79CE79BD6148224186359
:101F4000198421A629A5206210421863186208226C
:101F500019852184218418641844298310210821BB
:101F60001021104321C6286210420824424D73D02C
:101F70007BCF9452726FB797241950000000000075
:101F8000000000002DF6959394748BF1B5F6AC6CBF
:101F9000746529EA300000000000000000029E7B0A
:101FA000DE7BE79CE6115A0620421043218629A5D4
:101FB000286108420843184108211063198429A4A4
:101FC00018441823218208210821082108432A08DF
:101FD00039A4104210444A6D73CE8C3084339BEC8C
:101FE0008E3D5812B1E0000000000000000055D204
:101FF0009C53AC7373F2A635946E6BA831E8000065
:1020000000000000000000000A55DE5ADE7BE652A8
:1020100059E418421863186541C52862102210223D
:10202000104210210822104329A4184318221842F4
:10203000082108210821082329E831A4186311A7E1
:102040003BAF73EE743184119C2F85BEC8428C481F
:1020500000000000000000008DD28BF0B58D6455AB
:102060009412A40D622319E3000000000000000098
:1020700000000006B5F9DE78CE5683851842186454
:1020800021A441E739C418620843106210410821B5
:1020900010422184184318221021082108210842E7
:1020A000102221A5218531A3106653D07BCE73F178
:1020B0008C539C109457EDC0138F486000000000B3
:1020C0000006B5B28BF0A4297C7493D1826E81C2D4
:1020D00021803060000108000000000000004DD5A4
:1020E000B639B619B4060843106429A542084A67F0
:1020F00028621183104318421021084218631844C3
:10210000204310210821082110631042106321A7E9
:1021100041E418203BCF8C0F7BEF84759C0D743607
:10212000E7F8380431C62021082239D0A47295B3CB
:1021300083CA6C73846F627391C21007FC40000005
:10214000080000000000000003949DB6B5B5938A16
:1021500028211042186539E84A0839A42042104263
:102160001863184108211043184429841841082194
:10217000082221A52042086431E741E7306233900C
:10218000840E6B8C7C75AC5063D4C79FEBEA29A698
:1021900031CA73F14A779C3195F06BCE6BAF942EB8
:1021A00073CF81E00005DA6000400000000000000D
:1021B0000000004D8C339C718BED4841104210643F
:1021C00029E839E741E308421042106420621022F6
:1021D00010421864318421831041082329C52062EC
:1021E0000845420739E631A533D2942F726B7C53F0
:1021F000A5B39432AE3CF7FEBDB4A5D6D66E4D95D0
:102200008C71942D7C12824C83EE524F5000000052
:10221000000021C00000000000000000000673D094
:10222000941073CC49C20842106429C73A07386237
:10223000298218621984206310631863186439A511
:1022400031C42063104429C52041084539E731A431
:102250002184222F8BEE73CD7433A595AC72A59893
:10226000DFBEF7DEEFDCC2668DF48C7062718BB27C
:1022700073CD640B53EE48200000000008200000DE
:102280000000000000011001438C7B8A59E62042C7
:10229000104221A531E84A2839A7286321831984EF
:1022A000218318632184206441C531C529A52043B9
:1022B00021841821082329C6298421A64A2D842F88
:1022C00063B094729D93ADD28476CE5CF7DDE799CE
:1022D00059F2A4729C0E6BF2738F740C5C0C4A0959
:1022E00048000000000000000000000000000004A2
:1022F000580009A753C731C418621042198531C765
:1023000041E639E510442183218529842063218415
:10231000218441C631C429E72862186310210822AC
:102320001984218420653A2B74517BAD63D1ADB300
:10233000AD949473B63ADDF8E62C4C778BD1826C71
:102340008C507BCE6A6D5BCD49EB380000000000FD
:102350000000000000000000000AA18000002388A7
:10236000106208411042186429C739C749E308437D
:102370002063198421A418641864186339C6298459
:102380003208318310630821082210421984320672
:1023900019CE945073AF83EF95D6BDF6BC739C7580
:1023A000B595BC2B95F473CE73D08C0F7C0C5A2F43
:1023B00073AD4A4D30000000000000000000000036
:1023C00000000032A86010000066082108210843C0
:1023D000198429C631C84A0839C5206318631863AF
:1023E00018631984184339A4218429E731831063C1
:1023F000102108431042186321E7524953F073AD8E
:102400007C739C74AE19CDF4B5B3ADF69599B45107
:10241000745174118BED73CA6A2B73E83A6B4020C8
:102420000000000000000000000000000278680AC0
:102430007A463062182008421843198529C63208A6
:102440003A0629C631A31042106310421984204372
:102450003983198421A52063186318410842082193
:102460001864204121A7640F738B6B90ADD295D671
:10247000C79AC637B5D5B6168BD18411843183CBB4
:102480006BCD6A4A6B87624C480008000000000070
:102490000000000000003D921990ADF48A441841FC
:1024A00010221842106429C74A2841E410432183AE
:1024B0001042186210421984204341831863186443
:1024C000218318631861002331C629EA638C4A2DE1
:1024D0009DB493CC626A6434A5B7C63ACDF8BE19F0
:1024E000CDF5AC4F841083EF73AD73CD4A4B6BCDFC
:1024F00051E93003502000000000000000000004FB
:102500009C4623D3AC716A0510431022104210433D
:1025100021A6422941E7286429831042184210224B
:102520001063184349C418642184218421831863EB
:1025300021851989740F7C0F8596AD98E7946A29D7
:10254000524EADD8D639C619CE19CDF6B5D07BEEE0
:102550007BEE73AF7B8A3A4B6C0C422A39848BE258
:10256000000000000000000001B079C075D3A40B8A
:1025700051A11062104210421863218531E73A06DA
:1025800021832183186318621021084210435A27BF
:10259000298429A5218529A4186410255BCC6A68A3
:1025A00029C930404475ADB7D5B1626B6D97CE5A2D
:1025B000C618CE58C636BD9073CF7BEE73EE7389C6
:1025C000524B626D6A4B51E476324040000000008D
:1025D00000014C0D100D8C4E538D520610431842C5
:1025E0001042198531E631C631C52063198319843B
:1025F00018621041082108235A6A318421A529A6AE
:1026000031A410444BAB6A010023206531ACA5D541
:10261000838C85B3A46F6BF2B5F9DE59C65ACDF839
:10262000CC6F73AE6BAD6BCD6A6B5A29524C840E76
:1026300071E155FDC2231861082211AA61E01C173F
:10264000AC2D4BAD51E610431042106429A4322842
:10265000538A41E6206318632184186318420821D5
:102660000823638B41832184320828642A0A41C0ED
:1026700000021984206001B2C5F7AC6E4B9194360C
:10268000AC53AE19DF9ADE5BDE3BC40C6BAD6BADB9
:10269000638D6A6B5A0A526B74516A424DBCF630B4
:1026A000386419A421A3104CD7B89BCA5A6B5205A1
:1026B00039C21042198429C8420A4A4931A4104239
:1026C00010431863186420641021084473AA3983E6
:1026D00018643A4941E731A20001084108232183E7
:1026E0003C15BDF5A5D48C4E847195F8AE1ADFBCAF
:1026F000E7BDE7BDCB8A6BCD63AD638B5A693A0901
:102700005BAF6C327B8655FCEFFECC0A42052A0A91
:10271000963EEDF59B8B5A4B738B59A2104321A526
:1027200031E731C529C629810821104210421043E2
:1027300021852062106573AA39A418443A0941A37F
:10274000106210210002220729C97DB7B5D6BD92BB
:10275000A5F9B5917C38D5F9E7BDF7DEF7BDCB8B90
:10276000626B63AC5B8B5A27220A5BCF74128BC9F6
:1027700055BCE7BEFFFDDE79CFDDF798AC506A2B84
:102780006A6D73CB1863106429C529C52984298112
:102790001041082108210821082218642984218574
:1027A0007BAA41E6204329A418421842002329C3EA
:1027B00033B08C52A5F8C61ADE57A455C5D4C595BA
:1027C000E79AB65FF7DEF7DEE3CEB46C4A6D626B74
:1027D000522521E953D29450840B5459CE5DF7BE53
:1027E000FFDEF799B5D4826E83CC524B52482064F9
:1027F000186421842183198421C300010821082140
:1028000008210822104321A521857BAB4A0721839B
:1028100020621062086329A44A4C522C73AE9DF7C3
:10282000BDD7BDF7C5F28597C617C7DFDDF9F7DD60
:10283000E67DF5AEC7B9722A524A49C121C643D5D1
:102840009413944C4C37BE17D67AD638C5F5AC7174
:102850005A4B63CE626B522629C62984218529A54D
:10286000218421C410210821082108210842104296
:10287000198520657BCC520629841041086419A66D
:10288000524A41A7180000068DD59C73ADD9CE37AA
:102890009C54A61BD67CF7D8CF9EE79DF795421790
:1028A000E44C7388302129C86C559C7593CD5BD658
:1028B000B5D49DD495939474942B4BCE6A694A6B8E
:1028C000420829A629A3198429A5298429E62021BB
:1028D00010210821082110421043198429A67BCB1E
:1028E00049E62984104322072A29520500000021C5
:1028F000084CB5B5ADB7C5F7C618B5D6A5B9E7FC50
:10290000DFBCCE7EFFDEEFBB69CDBE39E6103822DC
:1029100019A99DF6A47383AE7414B5959C307C11EF
:102920008BC9540D638D52084A6941E839A531C5F8
:102930002983218429C731E83862104108221862AE
:1029400010421063218539E773A931C7318311869D
:1029500031A731E300000822102011AFB5F8CE18DE
:10296000BDD7BDD6B5D49DD4BE1CF7BEEFFDE79E46
:10297000F7BDB38E9DF46B9048000A31BE57A59603
:1029800093CF7C738411A595AD929429426F59C65B
:102990004A4A5BCE6B8A4A4839E8420631C5222949
:1029A0002A0A49A31042104318631042198429C807
:1029B00052285A283A0729832064206408000821F5
:1029C0000843102013D8D636B5F7BDF7BDD5A4728D
:1029D0009478B476CE7DF7DDE79EF7BED3CEAD8C8E
:1029E000027211CA7DDADE5AC5B5AC6F8BF0945213
:1029F0007C13A5939C7273CE7BEE6B8B5BD073893B
:102A000039E83A0629EC624A52273A0A51C3104281
:102A1000186420621043218531E95A4849E84A2761
:102A200031C518631860002108210842100175F8AB
:102A3000B594A5D7BDF7B5B5ADB39438E677BE7BF1
:102A4000E7BEF7DDEFBDEC6D9D8703F495FBEFBCB2
:102A5000E67BC5939DD5B44F9477B45194729C7323
:102A60008C518D948B894A6D6B8941E63A0A39877E
:102A7000522A49C7422952451042198420631064E2
:102A800029A529E9522839E9522842072984184101
:102A90000821082108210190AC73ADF7B5F8BDD627
:102AA000ADD6B5929476D7DCDFBDE7BDE7BDEFBC10
:102AB000E78D3B8C9DFAF7DEF7DEEF9CCDD49DB51C
:102AC000945195B8C5F69DB7ADB6B472738D73CCFD
:102AD00039A7640E41C521A96BA719A631E842297F
:102AE0004A4928421984218421A639E629C741E9A7
:102AF0004A2A52494A283983182108210821080006
:102B0000238E7D96BDD6BDF7B5D6B5D6ADB38C7A3E
:102B1000DE7EF79CEFDDE67CF79CDFD00C7AEFDE03
:102B2000F7DEF7DDF7BDDDF4ADB5BDD7BDB394334A
:102B3000ADD6A4739C5172274A4C6A49424E6A47EB
:102B400031A5324C520729E84A29522A418321846F
:102B500021A739E9522839C631C95A6B5A28422A65
:102B600049C3102108210821002431ABA5D6ADB6F8
:102B7000BDF7B5D6ADB6B5B38C36DF9CE79DEF9CFF
:102B8000F7BCE79CE66E6FFEEFBDF7DEE79DEFBD9D
:102B9000E656A5D48BC853CC7C13AC739C73A59616
:102BA00083AB29EA6BCE59C4538B5A6939A64A4A7A
:102BB00042074A4A524A41C421A429EA522A5A49A0
:102BC00041E731A95A6B52273A0949E40801082123
:102BD000082100210A339D94ADD7BDF6B5B5AD955A
:102BE000A4739C51A65CE67CEF9CE67CE79CE5EB3D
:102BF000C7DCEFDEF7BEE67CEFDDE798B5916BB0A2
:102C000085B5B5F6B5B39BCE9C7163AC39C7424A66
:102C1000526B4A074229420831A741E84A4A5A6B97
:102C200049C521A5320B5A6A4A2839E731C84A4AB0
:102C300049E521C849E308210821082100044C1274
:102C40009474B5D7BDD5AD94A4739C73940F8DBA0D
:102C5000F7BBD79DE61BE79ADC4BD79CEFDEEFBEB8
:102C6000EF9CDE5AD6779C4E622C83EF740E6BEE8F
:102C70006A685269522852084A27420952273A077D
:102C80003A0849E631E84A4A4A6C51E521A5320A38
:102C90005A4831C631C631C739E839C52185318333
:102CA000102210210821198543F294539DB5A59354
:102CB000A5B5ADB4A4718C119453C79CDE7ADF9C8A
:102CC000E67ABC0ED79DEFBDEF9AE79CDE39D6378A
:102CD000ADB693872841098529E629E832093A09E2
:102CE0004A2849E739E841C63209420731A631E8A6
:102CF0004A4B522B5A04186421A739E518642184E1
:102D000029A6298529842064218318431841082293
:102D100010215C7294319C729594A5D5ADB59C51EF
:102D200083CF8C528DB8DF9AD65ADE59ABCEE7DD11
:102D3000E7BCE7BAD79CD65BE658D637C6159C7079
:102D4000598009C941E739A85A4A420731C641E7C3
:102D50004A4839E84A26298431E84A4B624A5205F2
:102D60001063186420631043186218652863218477
:102D700021842183184318620821006A94529433F5
:102D80008BF09474ADB4A593942F6BAE8C518C11D1
:102D9000B61AD639BE15A38FE7BCE79BDF9CDE7C55
:102DA000DE3BD5F4ADD262695BD2ADF4706021C573
:102DB00031C43A494A0729C631E6322A4A073A0756
:102DC000420521E84A4B5A6B5A06206318631043A8
:102DD0001042104310652042218421A42063082260
:102DE0002183104219CE94538C517BF08412AC7223
:102DF000945183ED63CE840F8C318435C617BDB1F9
:102E00009B8EDF9BE67BDE39E79ABE3ACE38B5D79C
:102E1000B3E818000A30B6323000002311C831E898
:102E2000318631A741E949E631A841E629C84A4B34
:102E30005A4A5A46286310421043184210631844F5
:102E40001842198429A4186100232184186311CF22
:102E500094528430840F7BF08C30841083CD73CEF9
:102E60008BF094718C52B658C5D49432C67BDE7BFD
:102E7000DE1ADE59ADF6ADB7CDF5AC5073F193ABBC
:102E80007E5FD472622B382231A649C431C7420812
:102E90004A0531C639E739E8422A5A4A526820625F
:102EA000104210421042106418441823218429C58E
:102EB0002061084429A421821A508C2F8430841068
:102EC0007BCE73CE73EF6BB18BF19432A4539C51D4
:102ED000A67BD659C618B63ADE58D65BD63AAC743D
:102EE0008BD0ADD261C63A0963C8286223BAFE50BE
:102EF000626A51E421E729C74208420529C629C769
:102F000041E9522A524A524828621042102218427D
:102F100019841823184431E629A52983186429A5A2
:102F200029833BCE73CF8BEF8C2F73AC5A4C7BF045
:102F3000726E74318C5394339C53A63BE79BDF9B9A
:102F4000D638D679BE17BE39B4519473947393EBC7
:102F500038400041000000002DB6502973CB5A06BE
:102F60003A0739E529C4186739C63A295A694A4ADD
:102F70005248298210421022186219841843186599
:102F80004228298531C5218429C839866BAC5BAEBE
:102F90006BEF840F6B8C5A4D726B7412A5B6BDF635
:102FA000AD95AD92AE5BDE7CDE7BE79AC5F6CE36A4
:102FB0009596A595ADD3940F96157C159BA82A0CD4
:102FC00073A7000BBC41006653A95A4521C4106485
:102FD00021853A073A094A694A4B52272062106311
:102FE000186320631984186429853A2931853A07C2
:102FF0002984320A41AA638C626A6BCF8BEE73EE2E
:10300000638C5391B659CE3AD659CE38BE138D98AB
:10301000DE7BDE5BDF9CD5F3B5D5B4339475B5B0FC
:10302000944D3A2B7C519DB162076414AB80047CB3
:103030006800018642251064184421842A0839E971
:10304000524B4A2A5A47184110642184186321833D
:103050001864318321E72986420841C52A0B39CB00
:10306000638B522A6BCF7BD08BED638B75BACE39D5
:10307000D659CE59CE37ADF69458DE5ADE5BD67BA4
:10308000E678A592A5B3B5B4940F8C0C3022426BB0
:103090005C16C26510003268498EED8409830823EE
:1030A00018631043218531E942085A4B5A29526866
:1030B00020211184298418432183186431831985C0
:1030C0002187420849E521C83A2C5A6B420B63CE4E
:1030D0006BF06B8B5BD4A457BDF9CE19CE38CDF411
:1030E000947395B4AE5BD65BD67ADE5BCDB3945564
:1030F000A45183CE6A6B6247080253AA6DB44A2872
:10310000000029E56E1C700018431043106329A5C8
:1031100031E94209526A5A4A5269202110652983CD
:103120001044298310442983198421A631C741E51D
:1031300019863A2B5A693A2B626B4A0839A77E1ACC
:1031400083D5BDF8BDB8C618C5D274769BEA8E5932
:10315000BE7ADE58DE37D58D73EF8C518BEB4A0784
:10316000320A6245004B42139A2761E00001106D5C
:10317000A3E200631023186429C631C84A2A524BBF
:10318000526A5249284110442982084429A3104414
:10319000318429A529A529A641E41186424A52690C
:1031A000524941A5184219AFBDF78C16BDF7B59726
:1031B000C5F7BDB29DF8BBCA95EFBE58DE37CDF35B
:1031C000A44E7C5083CD4A2841A52062222C51C1B7
:1031D00052204DB0322D200210000BD3380218427D
:1031E000218429C739E74A49524B524A52692982F8
:1031F00010432182084429A4184431A53A0839C54E
:1032000029C8520521864A2849E839A310421000EE
:103210001BB7BDD69416B5F7A476BDD7AC74BE3730
:10322000B44B8BCDCDD6D5F5BDB19DB79C529BC9C6
:10323000386208431863100243AE420D100D9A2500
:103240006A000842000B9222084321A629C742289F
:103250004A4A526B5A4A5A4B306308221862082372
:1032600021A4186439C74228420731EA5A2621CAE4
:1032700049E518421042082108002C77B5F583D3A0
:10328000ADD79456B5D7AC54C618AC2C6392A5955F
:10329000BC6F8C53CE5ABBEC6A66304000001042C3
:1032A0002185286873AC69802C6C11E91801102005
:1032B0003C2B1804298631C83A294A4B526B5A29AB
:1032C0005A4A48620822184108222184218539E897
:1032D0004208420731E94A295249284100000820A2
:1032E000000000002C36B5F483D2ADD69456B5B6A6
:1032F000AC33C618A3EF4B8D747193C95438DE56A6
:103300007A2629C510000800000129C531A41A0B2E
:103310007BC6000A706259A0082201B0586329A632
:1033200039E74209524B526B5A284B8739810822A0
:1033300018620822186429A6420841E631C6298687
:103340004A6A4182102000000000000000001BF6C5
:10335000B5D47BF3ADB58C35ADB59C75BE179BEF81
:103360005A695BCB5A262A4A6C2B43CD5A4938609E
:103370000001104331A431C530634C2E10201BC80E
:103380000229000018058A6321C639E742094A4B21
:10339000526B5A47426A21A10821186310431863EF
:1033A00021864A0939C4218419C851E31021080033
:1033B00000000000000000002C36ADB273F4ADB484
:1033C00083F5AD959C55B5F68BCD5A4541C239C3B1
:1033D000198333909E189BC621E5084329C84A06E5
:1033E00031E631A511B06001000C7005582008606D
:1033F0002C0A19C731E73A094A4A524B5228422A45
:103400002183082111842063186319854A0839A48F
:10341000102439E510210800000000000000000021
:1034200000014455A5916BB19C527C149C7394345B
:10343000B5D57BEC324410202043206B9DB8C639B3
:103440009B8643AE59E7424B5B8C3A0739A4202058
:10345000724000004C42126200640991506739C802
:103460003A094A2A524B4A084249284308221985F8
:1034700029A4206310444A0839A319C92840000030
:103480000000000000000000000000003C539C50C1
:10349000624C840F74138C328434AD9373CC39C472
:1034A0000000080001F0B5F9D6368BADA5B59C2F0C
:1034B0006B8B538E626951E2184003E9000101D31E
:1034C000200A20042846820339E63A094A294A2973
:1034D00049E7426A30210822198421A6298208235B
:1034E00041E839A542030800000000000000000088
:1034F0000000000000004C518C0F5A2A6BCE63B0C4
:103500007BCE8431A590738A41A30000000001B0F6
:10351000BE39CE336BF5C618C617A3CB7BCE7BEE78
:103520006223102200314800000491C051C121A241
:103530002BC821E73A084A0742074A084A6A384036
:103540000822186219A73182082239C631E83040B2
:10355000000000000000000000000000000000016A
:1035600044317BED5A4A524C626C6B8B7C0F946EEB
:103570006A4631A1000000000215BE19CE1384571F
:10358000C63ADE5AAC33B5D4A4738BE808010804FC
:1035900071A000001407024911A419AE41A7420707
:1035A00041E531E64A284A6941A00002102111850F
:1035B0002862082339A539E410200000000000002B
:1035C0000000000000000000000023CF73AC4A2878
:1035D00039EA62684A2C6BCD740D6205184100000F
:1035E00000001275BE18C5F3ADF7CE3AD6568DD988
:1035F000CE38C5F7BDB13041080032250000006E5D
:103600004008506421866A043A0731C529C63A4801
:103610004A4A39830821082108631842082241A731
:10362000302000000000000000000000000000004A
:103630000000000009EB6249422621A7524521CA39
:103640005A4A5B8B5A051800000000002416B5F793
:10365000BDD5BE39CE39CDD2B65ACE39CE3AD5F453
:103660008204080009A5380000025A203A4319A430
:10367000338721E629A629C73229426A304310211F
:103680000821082108220822522608000000000014
:103690000000000000000000000000000000000327
:1036A00052283A0619843A26218641C7424A49C41B
:1036B0000800000000002C75B5D6BDB5C638CE593F
:1036C000B454CE5ACE38C639D6369B871000018402
:1036D00019C000400A6B09AA106521CA39A629A59C
:1036E00029C8420A4A4A30411042082108210821CB
:1036F000082261A00000000000000000000000009F
:103700000000000000000000000019C831A521835E
:103710002A272064218631E72840000000000000AD
:103720001BD4A595AD96C618D6369597D659BDB576
:10373000BDF9D637A3CA3861000409850001006AC3
:1037400050455863218549C531C531C8420B524B9C
:103750003041084208210001082100023800000021
:103760000000000000000000000000000000000059
:103770000000000000231842218421C62862004571
:103780001021080000000000000001F09C74A5B7A3
:10379000BE19C5D3A61ACE17A473B619D6379BEB9C
:1037A00051E5180120052801104442232A441185BF
:1037B000322739E739C8422C522B406108220821B0
:1037C00000000800000210000000000000000000DF
:1037D00000000000000000000000000108000000E0
:1037E000000008442184186100000000000000006F
:1037F00000000000000774529DB5B618BD93B619BD
:10380000BDD7AC54C658CE37A44B5249398110208D
:103810002860106221C7298A284631C83A294208FF
:103820004A2B622959A00822082108000000000242
:103830001000000000000000000000000000000078
:1038400000000000000000210000000000211042E4
:103850001020000000000000000000000000000038
:103860003C109D94B6179C739E18BE17AC76D63844
:10387000C637AC4942284A05218009810862018582
:1038800039C551A539C8420A4A294A6B638941E2C0
:10389000082108210821000100021000000000009A
:1038A0000000000000000000000000000000000018
:1038B00000010000000108000001080108000000EC
:1038C000000000000000000000000A319474B5F40C
:1038D0009C519617BDF6B5D7CE18C617AC6A4229CB
:1038E0004A0629A62043104108042A062A4731E83F
:1038F0004A0952494A4C5B8C41A3082108011042F5
:10390000082108020800000000000000000000007C
:10391000000000000000000000000000000008207F
:10392000080008000001080000000000000000007E
:103930000000000002118C54AD939C4E8DF6ADD664
:10394000ADF8BDF7BDD49C2842494A4829A641A4F8
:103950001822082229A839CA39C852484A4A524C62
:10396000626C5982084108011062102100021000A7
:10397000000000000000000000000000000008003F
:103980000000000100010000000008000800000025
:10399000002000000000000000000000000001AF57
:1039A00084339D938C4F8DD5AD94ADF7BDF6ADB4FA
:1039B00093863229526931A529E62183182321A54E
:1039C00039A651C75268322A5A6B626A5A020821D4
:1039D0000801084210210022080000000000000039
:1039E00000000000000000000020000100010800AD
:1039F000082108010001000100000820000000006B
:103A0000000000000000000001AF74119591840DCA
:103A10007C749C55ADF7BDF5B471606442294A4988
:103A200039C631E729A4204221A519A432264B89A1
:103A300029C9538B638A42030821082108210821E0
:103A40000822080000000000000000000000000044
:103A5000000000000001000008000800082000210C
:103A60000001002100200000000000000000000014
:103A7000000001AB63B18C1083E964527C75A5B67C
:103A8000B5B3B46D3040324A5249318531E621A692
:103A900031832063186421E6438939A7526A626939
:103AA00041C308210821082100200002080000006D
:103AB00000000000000000000000000000000021E5
:103AC0000020082108000020002100000800082034
:103AD000080000000000000000000000002863B1A2
:103AE0007BCE83A654307C729DB6AD93B58C286195
:103AF00012094A4A386219C6198631C5204218632C
:103B000019A5324A39C64A28524841A2082108213B
:103B10001021000008220800000000000000000042
:103B2000000000000000000000010820002100014A
:103B3000080000010820002008200000000000000C
:103B400000000000000000064BAC73CD7A464BCE5F
:103B50007C1194739C73B46D306319894A2A38625E
:103B6000220939C631C51022106321C529E939C59A
:103B70003A074A2931A208210821082100210823F7
:103B8000080000000000000000000000000000002D
:103B900000000000000100000821080008200821A2
:103BA00000200000080000000000000000000000ED
:103BB000002022495B8E622643AB63AF7C12947374
:103BC000A42F582228444A293982220739E841E49F
:103BD0001042198431C529C839E631E7426B418367
:103BE0000821082000010821084308000000000007
:103BF00000000000000000000000000000000000C5
:103C00000800080000010800002100210820082009
:103C100000000000000000000000000011832A4D99
:103C200051E442684A6A7C1184528C0E61C2186168
:103C30003A4941A3320831E94A26184321863A0617
:103C40003A0949C631A8424D61A208210820002145
:103C500008210843080000000000000000000000E8
:103C6000000000000000002100000001080000200A
:103C700008210020000008200001080000000000CA
:103C8000000000010000000011C7206329A431E9F1
:103C90007C0F843183CE398221821A6A52085249BC
:103CA0004A4B5248286429A9526A524A520731A8FD
:103CB000522C6A0208210820002210210823080043
:103CC00000000000000000000000000000000000F4
:103CD0000000000000200020082100210021080031
:103CE0000000082108200000000000000001000082
:103CF000000000420002082119AB6BCF842F8BCC4F
:103D0000300019A411CB520A624939A642283184E5
:103D10002A0C6B8D6BAC626939E9624C6223082115
:103D200008200022104108230800000000000000C5
:103D3000000000000000000000000800000000205B
:103D400000210001080108010820000108200820C6
:103D50000000000000000001082108200000000011
:103D6000000009A963AF83CC5A46100009C6206938
:103D70004A09522731A64A4939A4326E6BAF7BEE0D
:103D800073CC4A2B626D61E30801082100221043C5
:103D900018430800000000000000000000000000C0
:103DA0000000000000000000000008210821082099
:103DB000002108020820002008210820000000003F
:103DC0000021080108000820000008000044526C8F
:103DD00073A71841000001A7318452084A284208FD
:103DE0004A0941E63B8C5B8E7BEE73CE624E626E7F
:103DF00071C208010821082210431864080000005D
:103E000000000000000000000000000000000000B2
:103E10000000000108000821002100210021080005
:103E2000082000210000000000000021000108001F
:103E30000821000100210002322942220000000076
:103E4000004729A13A294A294A073A094A27326CE8
:103E50005B8D73EF626E638E73AC8A42082108211A
:103E6000084210211064080000000000000000005B
:103E70000000000000000000000000000000000042
:103E80000821080108210021082100000000080085
:103E90000000000000000821002100210821082165
:103EA000002211A408400000000000062861122929
:103EB000420841C53209420941EA5A6B6C0E424D33
:103EC0005BCF7BCD83C510420822104310210844EC
:103ED00008000000000000000000000000000000DA
:103EE0000000000000000000000000000021002190
:103EF000082108210001002100000000000000004E
:103F000008200021000008200820002100200000D7
:103F1000000000000003318301CA4A2941A531E7AE
:103F2000424A41C8524B6BCC3A2B5BCF7BEE73C7F6
:103F300010621042106310410823080000000000C6
:103F40000000000000000000000000000000000071
:103F5000000000000801002108210820002108209D
:103F60000021000000000000000000000001082007
:103F700008210021082000010000000000000002CC
:103F80003983004B5A4931842188626941C64A4BC2
:103F9000626C522963AE84107B8A18631842104108
:103FA0001983082308000000000000000000000042
:103FB0000000000000000000000000000000000001
:103FC0000000082108210821002008000800000046
:103FD0000000000000000000002108210001000195
:103FE0000821080000000000000029C310085A261C
:103FF0002984324C5A0949C5422A5B8C5A6A6BAEF5
:104000008C2F738A38431841082111A518430800E2
:1040100000000000000000000000000000000000A0
:10402000000000000000000000000000002000214F
:104030000820000000000000000000000000000058
:10404000000000010801000000010820000000003D
:10405000000000001A0310035A4939A642294A4AAF
:1040600049C6422A5BAD6BAC63CF8BEE738831835C
:1040700018410821098520450800000000000000C3
:104080000000000000000000000000000000000030
:104090000000000000000020000000000000000000
:1040A00000000000000000000000000008000021E7
:1040B000000100000021082000000000000001C7EE
:1040C000200042662985320A4A4A5206322963AEE6
:1040D0007BCD6BCF7BED73A8218210410821082294
:1040E000104510000000000000000000000000006B
:1040F00000000000000000000000000000000000C0
:1041000000000000000100000000000000000000AE
:104110000000000000000000000108000021000075
:104120001020000000000000006930201A062187DE
:104130004208526A52263A2963AE83EE73CF73ED7A
:104140006BCB2842104110210801084508000000EF
:10415000000000000000000000000000000000005F
:1041600000000000000000000821082108210820AC
:10417000002000000000000000000000000000001F
:1041800000000000000000000821082100200000BD
:104190000021002830200186320831C95A2A5228CD
:1041A000420A638F7BCF7BCF73ED626C3842104243
:1041B000102100000844080000000000000000007A
:1041C00000000000000000000000000000000000EF
:1041D00000210821082108210840082100000000D2
:1041E00000000000000000000000000000200001AE
:1041F00008000020082108410000000108053020C7
:10420000002851E52A0A3A2A4209320A5A6F73AF46
:104210007BCF73EE6A2A58621041082100200823E0
:10422000100000000000000000000000000000007E
:104230000000000000000000000008210821082004
:104240000821080208010801080000000000000021
:104250000000000000000000000000000820002016
:1042600008210800000110033820000639C6320674
:104270003A673A4732094B8D5B8D73EF73CE6A68AC
:1042800049A208410821000008230800000000009E
:10429000000000000000000000000000000000001E
:1042A0000000002108210821082108210801080038
:1042B0000000082000200020000000000000000096
:1042C0000000000000200001000108210821000179
:1042D00010253800000231C429C541E64A074207CB
:1042E000424B522B6BCF7BCE6B8731A21021082023
:1042F000000000231000000000000000000000008B
:104300000000000000000000000000000021080183
:104310000821000108210000000000000820000121
:104320000820000000000000000000000000002045
:10433000000008000021002208011845300000009C
:10434000206431A529A8420939C639CA39C95BAFE9
:104350007BED72672062082108200000002318010D
:104360000821082108210821082108210821082204
:10437000104210421042104310421042104210638B
:10438000104210421042104210421042104210429D
:10439000104210411042104210421042104210428E
:1043A0001042106220673041104119C839A64208F6
:1043B0004A6A4208422831C9526F7C0F73A731A361
:1043C0001863186210421025E7BDEFBDEFBDEFF096
:1043D00087DBDE7BDE77D79BE67BDE7BE79CE67DBB
:1043E000B5BDDE7CE67BEDB5EE7CDE7BDE7BDE7B89
:1043F000DF9B6DFEDF9BDE7BE5D6E79BDE7BDF9BF5
:10440000E7A997FBF411FE7CDE7BE67BDFBB763C05
:10441000DE7BD65BE67BE44EB7FDEFBDEFBDEFBDC7
:10442000E7BDEFBDEFBDEFBDEFBDEFBDEFBDEFBD34
:10443000EFBDE7BDE79CE7BDE7F19FBBDE7BDE7626
:10444000D79BDE7BDE7BDE7BDE7BDC19E67BDE7BE7
:10445000DF92BFBBDE7BDE7BDE7BDE5DA27CDE5BD4
:10446000DE5BDF97A65EDE7BDE7CEFF82DFDDE09EE
:10447000CFBCDE7BDE7BDE7E9C5EDE7AD65ADE7BC8
:10448000E7D65BDDFF9DEF9CE79DE79CE79CE79C03
:10449000E79CE79CE79CE79CE79CE79DE7BDE79CE2
:1044A000E79DE7D1B7BBD67BDE56D67BDE7BDE7BD6
:1044B000DE7BDE7AF5B1F67BDE7BDF997E7CDE7B10
:1044C000DE7BDE7BDE7BF390FE7BDE7BDE7DC3F579
:1044D000F79DF7F9ADDD69DEDFEE77FAE67BDE7B8F
:1044E000DE7CDD9BDE7BD65AD67BDE7EEC2DB7FDF7
:1044F000E79DE7BCE79DE79CE79CE79CE79CE79C82
:10450000E79CE79CE79DE79DEF9CE79DEFB0BF9B95
:10451000DE7BDE56D67BDE7BDE7BDE7BDE7BDF91E9
:10452000C7BCDE5BE65EAC1DDE7BDE7BDF9CE67A35
:10453000E629D7BBDE7BDE7BEE519FD8826D9E3BAA
:10454000F1CEFE59561CDE7BDE7BDE7BEE18E67A72
:10455000DE79CE7BDE7BE7F675DEEF9CE79DE7BC80
:10456000E79CE79CE79CE79CE79CE79CE79CE79D32
:10457000E79DEF9CE79DF66DC79BDE7BDE57DE7BFC
:10458000DE7BDE7BDE7BDE7BDF9697DBDE3ADE7B6F
:10459000EC72EE7BDE7BE79CDE7BDFF15FDBDE7BBC
:1045A000DE7BF7F820676C3AF7BCFDC1BE776BDFA6
:1045B000DE7BDE7BDF9BE656DE7BD65AC65BDE7B90
:1045C000DE5EDDB6E7DCE7BDE79CE79CE79CE79CA9
:1045D000E79CE79CE79CE79CE79DE79DEFBCE7BD78
:1045E000F62BD67BDE7BDE77DE7BDE7BDE7BDE7B47
:1045F000DE7BDE7A961DD798CF9BDFADA7DADE5B38
:10460000DE7BDE7BDE7D4C3FDE7BDFDFA20353C93A
:10461000CFFDD67BE7EA2FF0839BE67BDE7BDF9B3B
:10462000E7B5C79ADE5BC61BDE5BDE7ADFB8B7BED6
:10463000E79CEF9CE79CE79CE79CE79CE79CE79C5A
:10464000E79CE79DE79DEF9CE7BDF60EDE7BDE7BFA
:10465000DE77DE7BDE7BDE7BDE7BDE7BDE7AC45AD2
:10466000E67BBE5CD79B6E1DD65ADE5BDE7BDE5DD5
:10467000C9F6EF9BF5C71B96E7F73C7FE67BDFBCEF
:10468000245983D0FE7BDE7BDF9BDFB98F9CD67AFB
:10469000D5FBDE7BDE7BDE7DCC5DFF9CE79DE79C72
:1046A000E79CE79CE79CE79CE79CE79CE79DE79DF0
:1046B000EF9CE79CF5EFDE7BDE7BDE56DE7BDE7B70
:1046C000DE7BDE7BDE7BDE7ABC51FE7BD5DAE67DEF
:1046D000CA79EE5AD65BDE7BDE7AFC4BB5DE89CC3E
:1046E000CFFDE65FCA2EFFBCDE7F999C8BA9E79BBE
:1046F000DE7BDE7BDE7E7A5AEE5ADDD9DE5ADE7B49
:10470000DE7BEDAEEFBDE79DE79CE79CE79CE79C79
:10471000E79CE79CE79CE79DEF9CE79CE79DF5EF16
:10472000E67AD67BDE56D67BDE7BDE7BDE3ADE7B30
:10473000DE5CADED97FBE635DF9AFD87D7BAD65B39
:10474000DE7BDE7BDFCE858D8FBFE67BD67BF7AA57
:1047500067FCDE7CF9F29BED9FDBDE7BDE7BDE7DA2
:10476000D38BD79ADE16E65AD65BDE7BDFEE7FFC74
:10477000E7BCE79CE79CE79CE79CE79CE79CE79C01
:10478000E79DEF9CE79CE7BDF60FE67BDE5ADE5621
:10479000D67BDE7BDE7BE637E67BDE5CADF93DDE9D
:1047A000D7B89E7CD7F3465DD65BD67BDE7CDFBB7D
:1047B00056177BF9FFBBDE7BD7BE627EEE7BF5E84A
:1047C0008C115FBCDE7BDE7BDE7BEDCA87FAD675A3
:1047D000D67AD65ADE7BDF9D6E1FE7BCE79CE79C4E
:1047E000E79CE79CE79CE79CE79CE79DEF9CE79CA8
:1047F000EFBDF5EFE67BD67BDE56D67BDE7BDE7B40
:10480000DE55DE7BDE5BCC5DA1DAFE5DB45CE65F8F
:1048100099FAF65BD65ADE7BDE7EC39EDBE9761F15
:10482000F67BDE7DFBAAEFDCF6038C35561DDE7BC6
:10483000DE7BDE7CEE325DFBC795B79AD65AD65A40
:10484000DE7EABFFEF9CE79CE79CE79CE79CE79C48
:10485000E79CE79CE79DEF9CE79CE79CF60FDE7BDF
:10486000D67CDE56CE7BDE5BDE7BDF94BF9BDE7AC2
:10487000DC18F407DFDBF58FEF9BFC47C7FBD65A4C
:10488000D65BDE7BFC4AF7B161CCAF9FEE7BE7F1F4
:104890006E7DC40E8DDC9BDAE67BDE7BDE7BD79AF9
:1048A0007C7DB639AE7AD65AD658CF9AEBD6FFBCB5
:1048B000E79CE79CE79CE79CE79CE79CE79CE79DDF
:1048C000EF9CE79CE79CF630DE7BDE7DDE76C67CE7
:1048D000E67BDE7BDFB7B7BBDE7AF433F7AE379D1E
:1048E000DFD067DCDFF64C5EE65AD67BDE7BE7F096
:1048F0009E33FE71524FA67EFFD8206621A62A5312
:1049000091F6EE7BDE7BDE7BDE7DA45DB5BCA61B77
:10491000D65ADE59A5FDEC6EFFBCE79CE79CE79CF0
:10492000E79CE79CE79CE79CE79DEF9CE79CE79C66
:10493000EE72CE7ADE7BDE75C67CEF9BDE7BDF9B84
:10494000C7BBDE7AEC6EFE7C69DBF65E739DE67FAC
:10495000D24BCFBBD67BDE7BDF9E93FCF7DFF5CF60
:104960006C389A001000100000004596DF9BDE7B3B
:10497000DE7BE65CC3BBCC7BADDCD65BD792B438C8
:10498000E62FDFBCE79CE79CE79CE79CE79CE79C65
:10499000E79CE79DEF9CE79CE79CEFB2C67BDE5A65
:1049A000D795BF9BE67BDE7BDE7CA5DDDE7ADE2D48
:1049B000D7BBE3C6D7DCFBCCEFBAF7AF645AEE5BEC
:1049C000D67BDE7CEA74FF9CE7DFFC240002102229
:1049D00011AA38413DB5B7DBDE7BDE7BDE7AEBB575
:1049E000F477C47CD65AD7B1AE6BD7CEA7DCE79CA0
:1049F000E79CE79CE79CE79CE79CE79CE79DEF9C96
:104A0000E79CEF9DEFB1BF9BDE5ADF95B79BDE7B46
:104A1000DE7BDE7DAC1DDE7BD78EB7FBE7B045DEEF
:104A2000EFD06F9ED79ECC0C9E7DDE7BDE7AEE694A
:104A3000A7FCE7FD7063182008630258FDF3C5B6B4
:104A4000AF9BDE5BDE7BDF97EDF3F5B2DC59DE5A20
:104A5000D6748FF087F18FFCE79CE79CE79CE79C7E
:104A6000E79CE79CE79CE79DEF9CE79CE79DEFD1E7
:104A7000BF9AD67AD7B5B79BDE7BDE7BDE7CDBD9EF
:104A8000E67BD7B287FCDE7FB04FEFFEA3B9F67BA3
:104A9000EFB76C14C7DDE67BDFDB459FF7A801822B
:104AA000000873ED62238FFFF7FA967BDE5ADE7BF8
:104AB000DFB5B7F5B790D476E65AD6778FFD6E742A
:104AC0008FFCEF9CE79CE79CE79CE79CE79CE79CBE
:104AD000E79DEF9CE79CE79CEFF2B7BBD67BD796B0
:104AE000B79BDE7BDE7BDE7BF432F67BDF967FBC22
:104AF000EFF974294DFFFDC8B7FCDE7DEC6F8BF339
:104B0000CFBFEF9FD216FA44204123D59BED73CC43
:104B1000045FE7BD8E3CDE5ADE7BE7B98F9CA7922F
:104B2000ADB3E63AD678767F8D956FFDE79CE79C2E
:104B3000E79CE79CE79CE79CE79CE79DEF9CE79C54
:104B4000E79CE7D1B79BDE7ADF97B79BDE7BDE7B06
:104B5000DE7BEDAEE79BDE5B7DFFFC004E3E89EF2A
:104B6000DFF74C5FEE7BEE70960F63D2A63AF675D8
:104B7000684700027C6E63AC6416719AF79F9D9D36
:104B8000DE3ADF9BDF9E859FCDD68E31D65BD65B2E
:104B900075FFCC745FDDE79CE79CE79CE79CE79C96
:104BA000E79CE79CE79DEF9CE79CE79CEFD2B79BD7
:104BB000DE5BDF98AE7BDE7BDE7BDE7BEDAFAFDBEB
:104BC000E65C85DE400FF7DCF66F4C3FFBACDFFCAC
:104BD000DFDA843EEDB17BF3C7FA186129C67B8C1E
:104BE0006BCF7DB77193FFBF9D9ED63ADF9BDE7D75
:104BF000C41CF5D68DF1C65AD65C8DFFE4706FFDEE
:104C0000E79CE79CE79CE79CE79CE79CE79CE79D8B
:104C1000EF9CE79CE79CE7D6B79BDE5BDE78AF9B1B
:104C2000DE7BDE7BDE7BF5908F9CDE7BE4031E3F2C
:104C3000F79CDF9EB38AAFF55C3CFE7DF42BBFFF93
:104C4000F67BDFF531CBABE76A0D7C53BDC96E3C1B
:104C5000F79EB45DDE1ADE7BDE7BEC72F7967DB4E8
:104C6000AE5AD65C859FF5909FFDE79CE79CE79C3C
:104C7000E79CE79CE79CE79CE79DEF9CE79CE79C13
:104C8000EFD797BBDE7BD678AE7BDE7BDE7BDE7B31
:104C9000EDD3959EDF9FB00BF7FCE79CDE7BEFB476
:104CA00063B6BC2D967EF7F65BDBFFBCF62C641674
:104CB000C3C66C76B3A56D86F7FCDFBECC1CD59A57
:104CC000D67BDE7BD60E97FB6C37965ADE7D8C1F2B
:104CD000ED909FFCE79CE79CE79CE79CE79CE79CAA
:104CE000E79CE79DEF9CE79CE79DE7F687DBDE7B93
:104CF000D65AAE5CDE7BDE7BDE7BEDEEBBDCE7ED29
:104D000033D8FE7CDE59D659DE7DE5AE85B16BF237
:104D1000C79FFC298FDFFDB4BF97EBE497FDA98007
:104D200003AB766E97FDCBFCCBFADE7BDE7BEDD55D
:104D3000663FA2769639DE7CAC1FEC71B7FCEF9C27
:104D4000E79CE79CE79CE79CE79CE79CE79DEF9C42
:104D5000E79CE79CE7D79FBBDE7BD65BAE3CDE7B68
:104D6000DE7BDE7BDF8FDBD5FBA7CFCED7BBDE5B69
:104D7000E79BD79BDF9DC432BC6F6BF3BF966392FA
:104D8000D7DDEFBCF64A7DF8A02411B675C87FFDCB
:104D9000D41CD3B8DE7BDE7BEDD9B39DF3B2ADF886
:104DA000DE5CB45EEDAFD7BDE79CE79CE79CE79C7B
:104DB000E79CE79CE79CE79DEF9CE79CE79CEFDA8C
:104DC000A79BDE7BD67BA5FCDE7BDE7BDE7BDFD09C
:104DD000BE4E5B9FEFB29FFCE7BDE79DEF9CE79B5C
:104DE000DFDCC63CDDF38C16F5CE8E5DEF9DE7EC87
:104DF000665BEBA0025EFFA87FFEE41ADB97E67B12
:104E0000DE7BEE34F3D0FDADBE16DE7CB45EF5CFB6
:104E1000EFBCEF9CE79CE79CE79CE79CE79CE79C4A
:104E2000E79DEF9CE79CE79DE7BD963CDE7BD65C6B
:104E3000B5DCDE7BDE7BDE7BDFD197E54FFDDFB9C6
:104E40007F9DEF9CE79CE79DE79CE79CE79CE7BF85
:104E5000F7BCE7DFE67CEF9DEFF3461BEFB0765E35
:104E6000DDC5BFFCF436EB96E65BDE7BE632DE4B5F
:104E7000BFF08E74CE7BADDEFC4FFFBCE79CE79CA1
:104E8000E79CE79CE79CE79CE79CE79DEF9CE79C01
:104E9000E79CEFBD8DFDDE7BD65BBDDCE67BDE7B7C
:104EA000DE7BDFB67E547E7DE67E959FE7BEFFFF0C
:104EB000F79CE7BDE67CE79CE7BCE7BCE79DE7BC69
:104EC000E79CE7BF5A5BEFDFFF9BE208FC74FC3412
:104ED000F3D3E65BDE7BDFB2B7D477DA5E36B79B1F
:104EE000965FEA74FF9DE79CE79CE79CE79CE79C44
:104EF000E79CE79CE79DEF9CE79CE79CE7BEA61D2F
:104F0000DE7BD65BC5BCDF9BDE7BDE7BDFB7567FFF
:104F100083FFDE7CD59DEF98ADB5BE5CEF9CE79C32
:104F2000E79CEF9CE79DE79CE7BCE79CE79EE20BD4
:104F3000DFFECE78405DB21AFC54F431E65BDE7BD6
:104F4000DFD29FBC6D9F94599F9D8DFFBA3CEFBCF3
:104F5000E79CE79CE79CE79CE79CE79CE79CE79D38
:104F6000EF9CE79CE79CE79EC5BDDE7BD65BC5BC9E
:104F7000DE7BD67BDE7BDE7C761DE395FE7DFC5101
:104F8000F7DAB5D5C7DFF79CEFBCE79CE79CE79C59
:104F9000E79CE79DEF9CE7BCFF8A43B083885FD71F
:104FA0003E3EEC55E46FDE5BDE7BDFB58F9CABBC39
:104FB000EBD88DFF95FF741FE7BDE79CE79CE79C4E
:104FC000E79CE79CE79CE79CE79DEF9CE79CE79CC0
:104FD000E7BDCDDCDE5BDE5ADDB9E79ACF9CDE7B38
:104FE000DE7E747FEDCCE7F79E18EE3893AC6478E4
:104FF000E7BCE79CE79CE79CE79CE79CE79DE79D77
:10500000E79CE7FF89C963D8DBE9D7FBEC36CD8D98
:10501000CE7ADE7BDE77867BE3F3FC54A41FB61BDF
:10502000567DE7BCE79CE79CE79CE79CE79CE79CF8
:10503000E79CE79DEF9CE79CE79CE79CEE5BDE5AD4
:10504000DE5ADD96EF9ACE7BDE7BDE7E8C1FDFD4D0
:1050500065B4CE324181000000004E7EE79CE79CA3
:10506000E79CE79CE79CE79CE79CE79CE79DFFFDAE
:10507000BC6D43BDEE5AF456B5CEB67ADE7BDE7A11
:10508000761BE5D1E651B39CCDAE97FCE7BDE79C1E
:10509000E79CE79CE79CE79CE79CE79CE79DEF9CEF
:1050A000E79CE79CEF9DEE5BE65ADE59DDB5EF9B92
:1050B000AE5BDE7BDF9DAB9EE7BA6E1B5820002205
:1050C000104218603E7EE79CE79CE79CE79CE79CCB
:1050D000E79CEF9DE79DEF9DCBCA4A50D7FCD67C5D
:1050E000FC55BE50A67BDE7BDE7D7DDCE66AAFF143
:1050F000C3D2FBADF7BDEF9CE79CE79CE79CE79C28
:10510000E79CE79CE79CE79DEF9CE79CE79DE7BC5D
:10511000EE5AE679DE59DDF3E79B9E5CDE7BDE7CB2
:10512000C27BEE7CFC021842100110630259CF9C36
:10513000EF9CE79CE79CE79CE79CE79CE79CE7BC2F
:10514000E79DD595DFFEEE7BDE7BF473B7AE979BD4
:10515000DE7BDE7E959CE78B77F3BDCAFBF7FF9C79
:10516000E79CE79CE79CE79CE79CE79CE79CE79C27
:10517000E79DEF9CE79CE79CEFBCEE7AE678DE7A51
:10518000D653C7BCADFCE67BDE7BEB95F7BF71AFBA
:10519000304111EA638D303AFF9CEF9CE79CE79C1D
:1051A000E79CE79CE79CE79CE7BDE79CEFFFE67C7C
:1051B000DE7BDE7ADDF3A7EE87BBDE7BDE7E8C3C1A
:1051C000E6516677BFEAAE36FF9CE79CE79CE79C1A
:1051D000E79CE79CE79CE79CE79CE79DEF9CE79CAE
:1051E000E79CE79CEF9AE798D67AD674AFBEA47D89
:1051F000DE7BDF9BF3B1FF9003CC002873EE6B8E58
:105200007862DFDCEFBCE79CE79CE79CE79CE79CCF
:10521000E79CE79CE79CE79CE67BDE7BDE7BDE721F
:10522000BFD1879BDE7BDE7E9BFCDF925D9B9FF781
:105230004E35E7BCEF9CE79CE79CE79CE79CE79C2E
:10524000E79CE79CE79DEF9CE79CE79CE7BDE79A1E
:10525000DF99C67ACE579F9EA45DDE7BDE7CEC6B29
:10526000C4674A000A106B8C63D07C2547FDEF9C15
:10527000E79CE79CE79CE79CE79CE79CEF9CE79C0E
:10528000E79CE79BDE7BDE7BEDD4E7948F95CE7BBE
:10529000DE7DB41BDE72741CA67F9416C7DCE79C0F
:1052A000E79CE79CE79CE79CE79CE79CE79CE79DE5
:1052B000EF9CE79CE79CE7BCE7BADF99C67ACE3A59
:1052C0009E3ECC3BDE7BDE7CE60AC466682A820E0C
:1052D0005A6B6C519DE9047FE79CE79CE79CE79C37
:1052E000E79CE79CE79CE79CE79CE79CE67BDE7BF2
:1052F000DE7CDC59E6759F90C79BDE7CC3FADE2F0F
:1053000093FE9DBFFC4CA7DDE79CE79CE79CE79CD8
:10531000E79CE79CE79CE79CE79DEF9CE79CE79C6C
:10532000E79CEFB9D79BBE5ACE5AA5DDDC39DE7CAF
:10533000DE5BDFCFA26731BF71EB6BAC9434AA2682
:1053400085DEE79CE79CE79CE79CE79CE79CE79C65
:10535000EF9CE79CE79CDF9BDE7BDE7DB5BDDF96A7
:105360009E71D79BDE7DC3FADDCDC3FBADFEEFCFD3
:10537000679EE79DE79CE79CE79CE79CE79CE79C92
:10538000E79CE79DEF9CE79CE79CE79CE7B9CF9BF8
:10539000BE3BD639C47BF455EE7BDE5BDFF329A040
:1053A0004FDF21D4D5D3502DB39FFFFCE79CE79C62
:1053B000E79CE79CE79CE79CE79DE79CE79CE79CD4
:1053C000E79BE67BDF9AAE7CD7969E0FE79BDE7D60
:1053D000CBD8E5AFEBF9ADDFE7DD5C5FE79CEF9C99
:1053E000E79CE79CE79CE79CE79CE79CE79DEF9C9C
:1053F000E79CE79DE79CEFD7A7BCBDDCCE39D5B8CD
:10540000FC71EE7BDE3BE46E2824E7FC221ADE70A2
:10541000004193D6ABFCEFBCE79CE79CE79CE79C84
:10542000E79CE79CE79CE79CE79CE79CDE7BDE79BA
:10543000DF9BDFB595D1F67BDE7CCBF8E5B0F3D60C
:10544000ADDFE79FDB98F7BDE79CE79CE79CE79C17
:10545000E79CE79CE79CE79DEF9CE79CE79CE79C2B
:10546000EFF697BCCC5AD639D617F630DE5BE65944
:10547000A3FC600CFFBF5218BFB1006086493A5BC5
:10548000EF9DE79CE79CE79CE79CE79CE79CE79CFB
:10549000E79CE79CE79CE79BDE7BE67BDFD29450B2
:1054A000FE7BDE7CD438E591FBF4B5DFE79CFE7330
:1054B000DFBCE79CE79CE79CE79CE79CE79CE79CBC
:1054C000E79DEF9CE79CE79CE79CEFD7AFBBE4161A
:1054D000E639CE37DFB0BF9BDF96CFFF480FFFBF67
:1054E0009075D7BA5005C7FDC1F5FF9CEF9CE79CAE
:1054F000E79CE79CE79BE79CE79CE79CE79CE79C95
:10550000E79BDE7BDE7BDFD09BF1F67BDE7CD43756
:10551000E591FC33B5DFE79CE7DCD79DEF9CE79C8A
:10552000E79CE79CE79CE79CE79CE79DEF9CE79C5A
:10553000E79CE7BDE7D8AFBBF432EE19CC36BFF13C
:1055400097BBDFB8BFBD7811FF9DFA0CD67EEC5833
:10555000EE7D9039FF9CE79CE79CE79CE79CE7BCCD
:10556000E79CE79CE79CE79CE79CE79CE67BE67B67
:10557000DFD09C17EE7BDE7CDC17DC72FC32BDFEDC
:10558000EF9DE79DEF9DE79CE79CE79CE79CE79CF0
:10559000E79CE79CE79DEF9CE79CE79CE79DE7F68F
:1055A00097BBEDCEE63B9BFB8E77879ADE7C8E3DEC
:1055B000DC0DFF9CFDE49FDEF7FDE7D50BFEDFBCB5
:1055C000E79CE79CE79CE79CEFBDE79CE79CEF9C92
:1055D000E79CE79CE79CE79CE79CE7D2927AE67B16
:1055E000DE7CDC17E452FC11BDFEE79CEF9CE7BCBF
:1055F000E79CE79CE79CE79CE79CE79CE79CE79D92
:10560000EF9CE79CE79CE79CE7F68FBBE78CBE7BB3
:105610008C7D947F7E1BDE7E9C3EDFEFB7FCEFF03F
:10562000045FFF9CDC439656E7BCE79CE79CE79C45
:10563000E79DDF9EE79CE79CE79CE79CE79CE79C57
:10564000E79CE79CEF8E83DDE67BDE7CD3D7E434FA
:10565000FC13ADDFE79CEF9CE7BCEF9CE79CE79C6D
:10566000E79CE79CE79CE79CE79DEF9CE79CE79C19
:10567000E79CE7F697DBDFCF87BB7C5EC3DD9C7DD5
:10568000DE7CDBB8EF976FDDE7BF80696A4C4A5577
:10569000A47BEF9CE79CE79CE79CE7BB9458F79CB6
:1056A000E79CE79CE79CE79CE79CE79CE79CF62F40
:1056B00073FEDE7BDE7CCBB6E3D3FC119E7DE79CE4
:1056C000E79CE79DE79CE79CE79CE79CE79CE79CC1
:1056D000E79CE79DEF9CE79CE79CE79CEFD697DB78
:1056E000DFB5667B83DFF411D41CDE7BF44EF65D00
:1056F0007C3FE79CFE6F6BAC95AE8FFEE79CE79C12
:10570000E79CE79CE7BA940FFF9CE79CE79CE79C2B
:10571000E79CE79CE79CE79CFD917C3EDE7BDE7C82
:10572000CBB4F392FBED97FCEF9CE7BCE7BCE79CA6
:10573000E79CE79CE79CE79CE79CE79CE79DEF9C48
:10574000E79CE79CE79DEFF697BBDF9C659DA27DFC
:10575000F64BD438DE7CDF8DB7DBD279FE7CE7BE3A
:10576000E6569BD6FFBCE79CE79CE79CE79CE7BD21
:105770009DFCEF9CE79CE79CE79CE79CE79CE79CF3
:10578000E79CFC2E6E1DDE7BDE7DC3D1E272F3ED65
:10579000D7DCE79CE79CE79CE79CE79CE79CE79CC1
:1057A000E79CE79CE79CE79DEF9CE79CE79CE79CD8
:1057B000EFF68FBBDF9F8B9EBA37F7F185F1EE7C5A
:1057C000DFB66FBAF5A9E7BCE5AD7476BFDFE79C3D
:1057D000E79CE79CE79CE79CE79DEFBDE79CE79C87
:1057E000E79CE79CE79CE79CE79CE79DF3ED6FDC7B
:1057F000DE7BDE7DAC50C3B1F393FFBCE79CE79C3E
:10580000E79CE79CE79CE79CE79CE79CE79CE79C80
:10581000E79DEF9CE79CE79DE79CEFF687BBDE7C6E
:10582000CA56F26EFE7C5DB3CE7BDE7D83DFD7ECA5
:105830005FFBDE59E7BDEE7CE79CE79CE79CE79CBD
:10584000E79CE79CEFBCE79CE79CEF9CE79CE79C10
:10585000E79DE79CE7BED3EA97FBDE7BDE7D95CF35
:105860009C32DA5AF79CE79CE79CE79CE79CE79C14
:10587000E79CE79CE79CE79CE79CE79DEF9CE79C07
:10588000E79CE79CEFF687BCDE7AF3EDFDA8E67CAB
:10589000B3B8B67BDE7BE3D5F67D4C1FE79BDE7BA2
:1058A000DE7CE79CE79CE79CE79CE79CE7BCE79CE9
:1058B000E79DE79CE79DE79CE79CE79CE79CEF9FC3
:1058C000AB8DD79BE67BE67D95D57C349C1FE79D11
:1058D000E79CE79CE79CE79CE79CE79CE79CE79CB0
:1058E000E79CE79CE79DEF9CE79CE79CE79CEFF635
:1058F0007FBCDF9BDE29BFCC7FF9FC0DDE7ADF9B0E
:10590000DE4AB7BDD192FE7BDE7BDE7BE79BE79C68
:10591000E79CE79CE79CE79CE79CE79CEFBEFFDDEC
:10592000E79CE79CE79CE79CE7BF91F2FE7BDE3AB1
:10593000E67C8DD973D07F9DE79CE79CE79CE79C34
:10594000E79CE79CE79CE79CE79CE79CE79CE79D3E
:10595000EF9CE79CE79DE79CEFF687BBDE7BCFD013
:1059600067D83E1CDF8DA7DAD67BD7B83DDEF5C2FF
:105970009FFBDE7BDE7BE79CE79CE79CE79CE79C4C
:10598000E79CE79CE79EFFBAB65FFFDCE79CE79CDD
:10599000E79CE7BD6A3BEE7BDE1BDF99861389C877
:1059A000C7FCE79CE79CE79CE79CE79CE79CE79C9F
:1059B000E79CE79CE79CE79CE79DEF9CE79CE79CC6
:1059C000E7BDEFF697BBDF9BD67B45BF8A3ADF9CEE
:1059D00055DFCE7BDE7CB236EFF515BFDE7BDE7B9E
:1059E000E79CE79CE79CE79CE79CE7BDE79CF7F812
:1059F00073EF6A0A967FE79CE79CE79CE7DB2C7FC6
:105A0000DE7CD5DBE7987E4ED3EBFFBCE79CE7BCA2
:105A1000E79CE79CE79CE79CE79CE79CE79CE79C6E
:105A2000E79CE79DEF9CE79CE79CE79CE7D697BB4C
:105A3000DF9BD61E9A5BEC2FE65EB1F7F65AD6775F
:105A4000D627A7FFA874FE7BDF9BDF9CE79CE79C23
:105A5000E79CE79CEF9CE79FDB8EAF9E998521DA60
:105A6000FF9CE79CE79CE7F247DCDF9DB5BDDFD5F7
:105A7000662ADFB7EFBCE79CE79CE79CE79CE79CC6
:105A8000E79CE79CE79CE79CE79CE79CE79DEF9CF5
:105A9000E79CE79CE79CEFF697BBDE7BDDF6FB908F
:105AA000EE32D63AFDC7CFDADE789FD74C1DFDC661
:105AB00097FDD67BE79CE79CE79CE79CE79CE79DEE
:105AC000EFF63D9EFF902A0B69AAEFBCE79CE79C8E
:105AD000EFCAAFFBDE7DAD9DDFD465AFE7F39FFD81
