:020000040800F2
:1000000070040020E5450008CD450008CF450008F4
:10001000D1450008D3450008D54500080000000080
:10002000000000000000000000000000D7450008AC
:10003000D945000800000000DB450008DD45000848
:100040001146000815460008194600081D4600081C
:100050002146000825460008294600082D460008CC
:100060003146000835460008394600083D4600087C
:100070004146000845460008494600084D4600082C
:100080005146000855460008594600085D460008DC
:100090006146000865460008694600086D4600088C
:1000A0007146000875460008794600087D4600083C
:1000B0008146000885460008894600088D460008EC
:1000C0009146000895460008994600089D4600089C
:1000D000A1460008A5460008A9460008AD4600084C
:1000E000B1460008B5460008B9460008BD460008FC
:1000F000C1460008C5460008C9460008CD460008AC
:10010000D1460008D5460008D9460008DD4600085B
:10011000E1460008E5460008E9460008ED4600080B
:10012000F1460008F5460008F9460008FD460008BB
:100130000147000805470008094700080D47000867
:100140001147000815470008194700081D47000817
:100150002147000825470008294700082D470008C7
:100160003147000835470008394700083D47000877
:1001700041470008454700084947000800000000C3
:100180004D47000851470008FFFFFFFFFFFFFFFF3B
:10019000FFFFFFFFFFFFFFFFFFFFFFFF80000000EB
:1001A000000000000000000000000000000000014E
:1001B00080000000000000000000000000000000BF
:1001C00000000001800000000000000000000000AE
:1001D000000000000000000180000000000000009E
:1001E000000000000000000000000001800000008E
:1001F00088208000004008000800204041000001E5
:1002000080011FF0892080407FE0082004007040BA
:100210004100000180009010892087E04041FFF0FC
:100220000423C24041200001800024A08920844092
:1002300040401003FFF04143EFF00001800208430B
:10024000E923F440404014000803F140410000015C
:10025000800152208920944040402400088044407E
:100260004100000180014200892097C07FC04440C6
:100270000FC042406FE000018000BFF08920944031
:100280004040FFE01080E240C42000018000830075
:100290008920944040400400108150734440000184
:1002A00080030680E92097C04040248020814FC011
:1002B0004280000180010A4389209440404044402C
:1002C00020824040410000018001123111211010B4
:1002D0007FC0842040804040428000018001222075
:1002E000202110104041142085004041444000016D
:1002F0008001020040220FF040400801020040400F
:1003000098300001800000000000000000000000A4
:10031000000000000000000180000000000000005C
:10032000000000000000000000000001800000004C
:1003300000000000000000000000000000000001BC
:10034000800000000000000000000000000000002D
:10035000000000018000000000000000000000001C
:10036000000000000000000180F1F87E00013F1055
:10037000040000FE0004000020000001810810407D
:100380000001208000000010000400002000000197
:10039000810820403873A091C4B0D01070C58B0E76
:1003A0002386A201810020404489209224C9301074
:1003B00089264C912449A20180F0407E04813F129D
:1003C00004891010890448912448940180088040D1
:1003D0003C712211C4891010F904489124489401F9
:1003E000810880404409211024891010810448911B
:1003F00024489401810900404C892112248930103D
:10040000892448912449880180F3F87E3471A091B1
:10041000C488D01070C4488E2386880180000000F4
:100420000000000000001000000000000000880133
:1004300080000000000000000001E000000000005B
:10044000000F10018000000000000000000000000C
:10045000000000000000000180000000000000001B
:10046000000000000000000000000001800000000B
:10047000000000000000000000000000000000017B
:1004800080000000000000000000000000000000EC
:1004900000000001800000000000000000000000DB
:1004A00000000000000000018000000000000000CB
:1004B00000000000000000000000000180000000BB
:1004C000000000000000000000000000000000012B
:1004D000800000000000000000000000000000009C
:1004E000000000018000000000000000000000008B
:1004F00000000000000000018000000FF3FC0F016D
:100500008787018787000C00000000018000000F32
:10051000F3FE3F838FCF838FCF801C00000000014C
:100520008000000C030631C79CDDC79CDDC03C0089
:10053000000000018000000C0306608D9818CD9823
:1005400018C06C1E001000018000000FF306600947
:100550009F98C99F98C04C21000000018000000FA7
:10056000F3FC60019FD8C19FD8C00C2039538E0185
:100570008000000C03F8600198D8C198D8CF0C18FF
:10058000459451018000000C031C608198D8C198EB
:10059000D8CF0C067D17CC018000000C030E31C1B2
:1005A00098DDC198DDC00C01411402018000000FEC
:1005B000F3063F818F8F818F8F800C21451451016D
:1005C0008000000FF3070F018707018707000C1E4B
:1005D00039138E01800000000000000000000000C0
:1005E000000000000000000180000000000000008A
:1005F000000000000000000000000001800000007A
:1006000000000000000000000000000000000001E9
:10061000800000000000000000000000000000005A
:100620000000000180000000000000000000000049
:100630000000000000000001800000000000000039
:100640000000000000000000000000018000000029
:100650000000000000000000000000000000000199
:10066000800000000000000000000000000000000A
:1006700000000001804210200050000000000080B7
:1006800008008200000000018045102000100000DA
:100690000000008008008000000000018025272C59
:1006A0000E79C9114451109C681CB2F1C0E39781C6
:1006B000802528B2115221294A5290A29822CA8A32
:1006C00021145A418028AFA20C53E0AA2A8AA0A084
:1006D00088208A89E10452418028A822025200AA77
:1006E0002A8AA0A08BA08A8A21045241801048B295
:1006F00011522044110440A298228A8A6114524166
:100700008010472C0E59C8441104429C681C8A89E9
:10071000A4E39241800000000000000000000000FF
:100720000000000000000001FFFFFFFFFFFFFFFFD0
:10073000FFFFFFFFFFFFFFFFFFFFFFFF8000000045
:1007400000000000000000000000000000000001A8
:100750008000000000000000000000000000000019
:100760000000000180000000000000000000000008
:1007700000000000000000018000000000000000F8
:1007800000000000000000000000000180000000E8
:100790000000000000000000000000000000000158
:1007A00080000C0FCF838601F38E1C7FBF070C03E4
:1007B000E7C0000180000C0C0CC6C6031B8E360C73
:1007C000318D8C063660000180000C0C0C66C6066C
:1007D00003DE360C318D8C0C0630000180000C0CD1
:1007E0000C63C60603DE1E0C31878C0C063000013C
:1007F00080000C0FCC6306060356180C31860C0CD7
:100800000630000180000C0C0C67A60603563D0C58
:100810003F0F4C0C0630000180000C0C0C6DA6063E
:1008200003566D0C301B4C0C0630000180000C0C84
:100830000C6CE6060376670C3019CC0C0630000110
:1008400080000C0C0CCCE6031B76670C3019CC0630
:100850003660000180000FCFCF87B7E1F3263D8CD3
:10086000300F6FC3E7C000018000000000000000EF
:1008700000000000000000000000000180000000F7
:100880000000000000000000000000000000000167
:1008900080000000000000000000000000000000D8
:1008A00000000001FFFFFFFFFFFFFFFFFFFFFFFF53
:1008B000FFFFFFFFFFFFFFFF8000000000000000C0
:1008C00000000000000000000000000180000000A7
:1008D0000000000000000000000000000000000117
:1008E0008000000000000000000000000000000088
:1008F0000000000180000000000000000000000077
:10090000000000000000000180C000C07000000076
:1009100000000000000003000301C00180C003F0DC
:10092000EFF00001800180E0000003000FC3BFC1B1
:1009300081C007F6003000018007E1DFE00007001A
:100940001FD800C181C00FFC00100003800FEC0015
:10095000600007003FF0004183C01FFE0008300325
:10096000801FF80020000F007FF8002183E01FF4B3
:100970000038F807803FFC0010600F807FD000E354
:1009800086601FC40016FC07C03FE80071F01980A4
:100990007F10005B85201FFF0011FE0CC03F880008
:1009A0002DF814807FFC00478D301FF380F1FE0A84
:1009B000403FFE0023FC34C07FCE03C79C300FF8BD
:1009C0007F9CFE1A603FE701E3FC70C03FE1FE73CD
:1009D000FE7007FF3FE6FE38601FF0FF39FDF9C0EB
:1009E0001FFCFF9BFFF004FF0FFA7EFCE00FFE7F71
:1009F000CDFDFFC013FC3FE99FF0047FCFFA7CFFE1
:100A0000E009FE1FF4FC7FC011FF3FE98008083FAA
:100A100087FC783FE008FF9FF4F8002020FE1FF1DC
:100A20008008081F03F8200010107F0FF8F0002046
:100A3000207C0FE1800808F80000200010103E071D
:100A4000F040002023E00001800411FC00002000A1
:100A50001011F0000040001047F000018007D3FCA7
:100A600007E020000823F8000040001F4FF01F811E
:100A70008004678E0FF020000FA7F80FC040001110
:100A80009E383FC1800C6F1609F8200008CF1C1F4C
:100A9000E0400031BC5827E180174F7C10FC20005B
:100AA00018DE2C13F040005D3DF043F180108F08FC
:100AB0001EFC20002E9EF821F84000423C207BF1D5
:100AC00080108F0003FC2000211E103DF8400042E2
:100AD0003C000FF180108F9000FC2000211E0007C9
:100AE000F84000423E4003F1801087F80FFC2000E0
:100AF000211F2001F84000421FE03FF1800CC3DCC1
:100B000007FC2000210FF01FF84000330F701FF189
:100B10008007C00003F820001987B80FF840001FB5
:100B200000000FE18000E00000F060000F8000078F
:100B3000F0400003800003C180007000000040000E
:100B400001C00001E0C00001C00000018000580D9C
:100B50000000C00000E000000080000160340003DD
:100B600080006C300001800000B01A00018000019C
:100B7000B0C00007800026000002000000D860001E
:100B8000030000009800000980001180000C0000A4
:100B9000004C00000400000046000031800010E01E
:100BA000003800000023000018000000438000E12E
:100BB000800018FE01F800000021C0007000000055
:100BC00063F807E1800009E1FFFC00000031FC034D
:100BD000F00000002787FFF1800009C00F3C0000F3
:100BE0000013C3FFF800000027003CF180000580DF
:100BF0000E1C00000013801E7800000016003871E3
:100C0000800007000E0C0000000B001C38000000E4
:100C10001C00383180000200040C0000000E001C93
:100C200018000000080010318000020001040000DC
:100C300000040008180000000800041180000200F1
:100C40000002000000040002080000000800000983
:100C50008000060000820000000400000400000084
:100C6000180002098000040000410000000C00018F
:100C70000400000010000105800004000041000095
:100C80000008000082000000100001058000040040
:100C900000010000000800008200000010000005B4
:100CA0008000040000410000000800000200000075
:100CB0001000010580000400007200000008000020
:100CC00082000000100001C980000400003C000008
:100CD00000080000E4000000100000F180000400A3
:100CE000003800000008000078000000100000E15B
:100CF00080000400003000000008000070000000C8
:100D0000100000C180000400002000000008000066
:100D1000600000001000008180000400000000005E
:100D200000080000400000001000000180000600E4
:100D30000040000000080000000000001800010151
:100D40008000021000400000000C00008000000045
:100D5000084001018000020F80C000000004200054
:100D600080000000083E03018000020300C0000074
:100D700000041F0180000000080C03018000000037
:100D800000C0000000040601800000000000030114
:100D900080000101008000000000000180000000D0
:100DA00004040201800000C381000000000202016F
:100DB00000000000030E04018000003C7E000000E3
:100DC000000187020000000000F1F801800000002F
:100DD00000000000000078FC00000000000000019E
:100DE0008000000000000000000000000000000083
:100DF00000000001FFFFFFFFFFFFFFFFFFFFFFFFFE
:100E0000FFFFFFFFFFFFFFFFFFFFFFFFFFFFFFFFF2
:100E1000FFFFFFFFFFFFFFFFFFFFFFFF800000005E
:100E2000FFFFFFFFFE0000000000001FFFFFFFFFAD
:100E300080000003FFFFFFFFFF8000000000007F35
:100E4000FFFFFFFF80000007FFFFFFFFFFC0000064
:100E5000000000FFFFFFFFFF8000000FFFFFFFFF0C
:100E6000FFE00000000001FFFFFFFFFF8000001F08
:100E7000FFFFFFFFFFF00000000003FFFFFFFFFF89
:100E80008000003FFFFFFFFFFFF80000000007FFAA
:100E9000FFFFFFFF8000007FFFFFFFFFFFFC000060
:100EA00000000FFFFFFFFFFF800000FFFFFFFFFFBD
:100EB000FFFE000000001FFFFFFFFFFF800000FF9C
:100EC000FFFFFFFFFFFE000000003FFFFFFFFFFFEF
:100ED000800001FFFFFFFFFFFFFF000000007FFF1A
:100EE000FFFFFFFF800003FFFFFFFFFFFFFF80000A
:100EF0000000FFFFFFFFFFFF800003FFFFFFFFFF7A
:100F0000FFFF80000000FFFFFFFFFFFF800007FFE3
:100F1000FFFFFFFFFFFFC0000001FFFFFFFFFFFF1C
:100F2000800007FFFFFFFFFFFFFFE0000001FFFF62
:100F3000FFFFFFFF80000FFFFFFFFFFFFFFFE0004D
:100F40000001FFFFFFFFFFFF80000FFFFFFFFFFF1C
:100F5000FFFFF8000001FFFFFFFFFFFF80001FFF02
:100F6000FFFFFFFFFFFFF8000001FFFFFFFFFFFF94
:100F700080001FFFFFFFFFFFFFFFFC000000FFFFDF
:100F8000FFFFFFFF80003FFFFFFFFFFFFFFFFC00B1
:100F900000007FFFFFFFFFFF80003FFFFFFFFFFF1D
:100FA000FFFFFE0000003FFFFFFFFFFF80007FFF0D
:100FB000FFFFFFFFFFFFFF0000007FFFFFFFFFFFBE
:100FC00080007FFFFFFFFFFFFFFFFF8000007FFF2C
:100FD000FFFFFFFF80007FFFFFFFFFFFFFFFFF809E
:100FE00000007FFFFFFFFFFF80007FFFFFFFAAAA37
:100FF000AFFFFFC00000FFFFFFFFFFFF8000FFFF0C
:10100000FFFFA80003FFFFC00000FFFFFFFFFFFF7F
:101010008000FFFFFFFF800001FFFFE00001FFFFF6
:10102000FC0FFFFF8000FFFFFFFF000000FFFFF04D
:101030000001FFFFF003FFFF8000FFFFFFFF000044
:10104000003FFFF00001FFFFF001FFFF8001FFFF05
:10105000FFFE0000007FFFF80003FFFFE003FFFF3B
:101060008001FFFFFFFE0000003FFFB80003FFFF0D
:10107000E001FFFF8003FFFFFFFE0000001FFFDC19
:101080000007FFFFE001FFFF8003FFFFFFFE0000FE
:10109000000FFFDC0007FFFFC000FFFF8003FFFF22
:1010A000FFFC0000001FFFCE0006FFFFC000FFFF97
:1010B0008003FFFFFFFC00000007FFCE0007FFFFDB
:1010C000C0007FFF8007FFFFFFF80000000FFFCE8A
:1010D000000CFFFF8000FFF78007FFFFFFF000001C
:1010E0000007FFC7000DFFFF80007FF7800FFFFFA5
:1010F000FFE000000007FFC7001DFFFF80007FF733
:101100008007FFFFFFC000000003FFC70009FFFFCB
:1011100080003F7B800FFFFFFF8000000003FFC7C0
:101120000019FFFF80007FF7800FFFFFFF00000026
:101130000001FFC70018FFBF80003F6B800FFFFF5B
:10114000FE000000005FFFC70008FFBE80003E7386
:10115000801FFFFFFC7FE00001FFFFC70008FFBE0C
:1011600080003EEB801FFFFFF8FFF80007E1FFC79C
:10117000000CFFBE00003E53801FFFFFF8007F0001
:101180001F01FFC70004FFDE80003CD1803FFFFF4E
:10119000F80007803801FF8700007FFE000038411B
:1011A000803FFFFFF000010020B5FFC700007FBFB8
:1011B00080000DD1803FFFE7F01FD00007FDFD86C6
:1011C00000007F0BE400FFFF807FFDE1F03FF400B3
:1011D00007EDFD8E00007B807001FEA3807FFBC1C8
:1011E000E07BFC001DE5FD840000780030038001F9
:1011F000807FF3C1E03FCE000FEDFD8C00007C78D6
:101200000000000180FFF781C03FC0001FD1F98CB2
:10121000000058FF0000414180FFF7C1C01F860059
:1012200017F87D880000B8FFC00017F980FFFF2184
:10123000C00FE00003F4F988000099FCC0005FFDD6
:1012400081FFFF81C00000000000718000005DBED2
:10125000E0003F9F81FFFF01800000000001F100DE
:101260000000489FE0007FFF83FFFF21C0000000D7
:101270000000F30000000C3FF0002FF783FFFF1B7E
:10128000800000000000E20000002C3F80004FF5CD
:1012900083FFFF0180000000000062000000243F87
:1012A000000007F987FFFF03800000000000C40072
:1012B00000001454000017F987FFFF83800000002E
:1012C0000000C000000014000000008187FFFFC381
:1012D000800000000000C00000001C0000000001B1
:1012E0008FFFFFEB800000002000C0000000040022
:1012F000000000018FFFFFFF800000002000800041
:1013000000000C00000000018FFFFFFF80000000C4
:101310002000C00000000400000000019FFFFFFF4C
:10132000800000002001800000000C00000000018F
:101330009FFFFFFF800000002001800000001E00D2
:10134000000000019FFFFFFF80000000400300003D
:1013500000001A00000000019FFFFFFF8000001046
:10136000A003000000001A00000000019FFFFFFF23
:10137000800000028003000000000200080000015D
:101380009FFFFFFFC00000000007000000002300D7
:10139000040000019FFFFFFFC000000000070000E5
:1013A00000002200042000019FFFFFFFA0000000BA
:1013B000000700000000410002A00001BFFFFFFF86
:1013C000A0000000B0170000000041000000000174
:1013D000BFFFFFFFD00006F5F0170000000041003E
:1013E00000000001BFFFFFFFC8000FFFC023000087
:1013F0000000818000000001BFFFFFFFC60000AABF
:10140000A02300000000038000000001BFFFFFFFD9
:10141000C200005D00430000000083C01E80000188
:10142000BFFFFFFFE100002200830000000203E095
:101430001FFF4001BFFFFFFE40C00000010300008E
:10144000000007600A9F8001BFFFFFFB60200000D3
:1014500002038000000406F807A20001BFFFFFFEA0
:101460006038000006018000001006F80540000109
:10147000BFFFFFFD200400000C018000003C0EFCBB
:1014800003F80001BFFFFFF66007000018008000AE
:1014900000700DFE00800001BFFFFFF71000C000CC
:1014A0003000400000701CFF00000001BFFFFFFB88
:1014B0002000E0006000400000401DFF80000005AB
:1014C0009FFFFFF59000280080004000000018FFFB
:1014D000400000099FFFFFF990001E81E00000001E
:1014E000000039FF400000119FFFFFF4400002BFE1
:1014F00090000000000079FF300000E19FFFFFF442
:1015000040000555080000000000F1FF180002012E
:101510009FFFFFFA30000010840000000000F3FF7E
:101520001C0007018FFFFFF50C0000A5060000005E
:101530000001E3FE3C0038018FFFFFFA8100000448
:10154000810000000001E7FE7F80E0018FFFFFFACD
:1015500080000001018000000003C7FEE4F70001E5
:1015600087FFFFF540000001008000000003CFFE70
:10157000E22C000187FFFFFA400000048080000099
:1015800000078FFEC600000187FFFFFD400000013D
:101590000080000000078FFEEA00000187FFFFFACD
:1015A000A000000000E00000000F9FFDE400000329
:1015B00083FFFFFD40000000001C0000000F1FFD26
:1015C000F200000381FFFFFDA00000008003000087
:1015D000001F1FFFE400000F80FFFFFE500000010E
:1015E00000807000001F1FFCF200001F807FFFE7DB
:1015F000A000000100800C00001F3FF0F40000FD7F
:10160000803FFF05A800000080C00200001F3FE0EF
:101610007A0001F9801FFE01A000000180E00100B6
:10162000001F3C0078000FC1800FFE03D8000000AF
:1016300000B000C0001F32003C003F018004FE1FCC
:10164000C6000000C1D00020001F80001E01FC0168
:101650008018011FF1C0000049F80000003E0000A2
:101660001F01F001802001BFF800000053BC0010F2
:10167000001800000707C001806000FFFC000000A8
:1016800066FE000400600000030780018080007F88
:10169000FE0000004FDE000200800000038F00010A
:1016A0008180003FFE0000005FBF0002008000005C
:1016B000039E00018200003FFF00000075FB8001D7
:1016C00001000000039C00018600003FFF80000035
:1016D000377FC0010100000003B800018800007FCF
:1016E000FF80000177F6C0010000000003B8000190
:1016F0009000003FFFC00000B3FFE000800000004A
:1017000001F00001A000007FFFC0000037FFE000F3
:101710008000000003F00001C000003FFFC0000097
:1017200012FF70008000000001E00001C000007F97
:10173000FFE0000033FFB0004000000001C00001E6
:101740008000003FFFE0000013FFF80040000000B1
:10175000000000018000007FFFE0000033FFE80090
:1017600040000000000000018000003FFFF000008A
:1017700013FFFC0020000000000000018000007F3B
:10178000FFF0000027FFFC00200000000000000127
:101790008000003FFFF8000023FFFE001000000063
:1017A00000000001FFFFFFFFFFFFFFFFFFFFFFFF44
:1017B000FFFFFFFFFFFFFFFF8000000000000000B1
:1017C0000000000000000000000000018000000098
:1017D0000000000000000000000000000000000108
:1017E0008000000000000000000000000000000079
:1017F0000000000180000000000000000000000068
:101800000000000000000001800000000000000057
:10181000000000000000000000000001801FF3FC39
:1018200007C060F8780C1F0F000C000000000001DA
:10183000801FF3FE1FE0E1FCFC1C3F9F801C0000AA
:1018400000000001801803071871E18DCE3C31B90A
:10185000C03C000000000001801803033023630136
:10186000866C6030C06C0000030000018018030724
:1018700030026371864C6E30C04C000003000001E2
:10188000801FF3FE300063F9860C7F30C00C00002F
:1018900000000001801FF3F83000639D860C73B0D8
:1018A000C00C1E3C7B1E3C018018031C3000630DE5
:1018B000860C61B0CF0C3366633366018018030E6B
:1018C0003020630D860C61B0CF0C38666333700135
:1018D000801803061870618DCE0C31B9C00C1E7EC5
:1018E000633F3C01801FF3071FE061F8FC0C3F1FC2
:1018F000800C076063300E01801FF30387C060F027
:10190000780C1E0F000C3366633366018000000004
:10191000000000000000000000001E3C631E3C01AF
:101920008000000000000000000000000000000037
:101930000000000180000000000000000000000026
:101940000000000000000001800000000000000016
:101950000000000000000000000000018000000006
:101960000000000000000000000000000000000176
:1019700080000000000000000000000000000000E7
:101980000000000180000000000030006000C0C0C6
:101990000000000000000001800000000000300096
:1019A0006000C0C0000000000000000180000000D6
:1019B000000030006000C0000000000000000001D6
:1019C000800C4788F11831E3603CD8CD878078F1EE
:1019D000BB000001800CE79CF3983336E066ECCE48
:1019E000C8C0CD99DD8000018006ECDD9BB03306D8
:1019F0006060CCCCC3C0C199998000018006ACD591
:101A00009AB033066060CCCCC6C0C1999980000101
:101A10008007BCF79EF033066760CCCCCCC0C19980
:101A2000998000018003B8770EE33336E066CCCCB2
:101A3000CCCCCD9999800001800318630C6331E30D
:101A4000603CCCCCC7CC78F19980000180000000CC
:101A50000000000000000000000000000000000185
:101A600080000000000000000000000000000000F6
:101A700000000001FFFFFFFFFFFFFFFFFFFFFFFF71
:101A8000FFFFFFFFFFFFFFFFFFFFFFFFFFFFFFFF66
:101A9000FFFFFFFFFFFFFFFFFFFFFFFF80000000D2
:101AA0000000000000000000000000000000000135
:101AB00080000000000000000000000000000000A6
:101AC0000000000180000000000000000000000095
:101AD0000000000000000001800000000000000085
:101AE0000000000000000000000000018000000075
:101AF00000000004000000000000000000000001E1
:101B0000800000000000000C000000000000000049
:101B100000000001800000000000001C0000000028
:101B20000000000000000001800000000000003CF8
:101B30000000000000000000000000018000000024
:101B40000000007C00000000000000000000000118
:101B500080000000000000FC000000000000000009
:101B60000000000180000000000001FE00000000F5
:101B7000000000000000000180000000000001FEE5
:101B80007000000000000000000000018000000064
:101B9000000000FE7FC00000000000000000000107
:101BA00080000000000000FE7FFF00000000000039
:101BB0000000000180000000000000FE7FFFF80030
:101BC000000000000000000180000000000000FE96
:101BD0007DFFFF8000000000000000018000000089
:101BE0000000007E7C3FFFF80000000000000001C4
:101BF000800000000000007E7C07FFFF80000000E6
:101C000000000001800000000000007E3C00FFFF9B
:101C1000F000000000000001800000000000007ED5
:101C20003C001FFFF00000000000000180000000E9
:101C30000000003E3C0001FFF00000000000000139
:101C4000800000000000003E3C00003FF00000006B
:101C500000000001800000000000003F3C00000385
:101C6000F000000000000001800000000000003FC4
:101C70003E000001F00000000000000180000000B4
:101C80000000001F3E000001F00000000000000105
:101C9000800000000000001F3E000001F000000076
:101CA00000000001800000000000001F3E00000155
:101CB000E000000000000001800000000000001FA4
:101CC0003E000001E0000000000000018000000074
:101CD0000000000F3E000001E000000000000001D5
:101CE000800000000180000F3E000003E0000000C3
:101CF000000000018000000001F8000F3E0000031A
:101D0000E0000000000000018000000001FF800FE3
:101D10003E000003E0000000000000018000000021
:101D200000FFF8071E000003E000000000000001B3
:101D30008000000000FFFF879E000003C00000003D
:101D4000000000018000000000FFFFE79E0000038C
:101D5000C00000000000000180000000007FFFE7DD
:101D60009E000003C0000000000000018000000091
:101D7000007DFFE39E000003C000000000000001A2
:101D800080000000007E7FE39E000003C000000092
:101D90000000000180000000003E0FC39E00000311
:101DA000C00000000000000180000000003E03C3EE
:101DB0009E000003C0000000000000018000000041
:101DC000003E00C19E0000038000000000000001F2
:101DD00080000000003F00019F0000038000000021
:101DE0000000000180000000001F00019F000003B0
:101DF000800000000000000180000000001F0001C2
:101E00009F0000078000000000000001800000002B
:101E1000000F80009F00000780000000000000010C
:101E200080000000000F8000DF000007800000003D
:101E30000000000180000000000F8000CF000007BC
:101E4000800000000000000180000000000780000A
:101E5000CF000007800000000000000180000000AB
:101E60000007C0004F000007000000000000000154
:101E7000800000000007C0004FFFFFFF00000000CF
:101E800000000001800000000003C0004FFFFFFFC2
:101E90000000000000000001800000000003E000DE
:101EA0000FFFFFFF000000000000000180000000A5
:101EB0000001E0000FFFFFFF000000000000000134
:101EC000800000000001E0000000000000000000B1
:101ED00000000001800000000001E00000000000A0
:101EE0000000000000000001800000000000F00081
:101EF0000000000000000000000000018000000061
:101F0000FE00F000C3F0E007000000000000000148
:101F100080000000FE000000C3F8E00700000000A1
:101F20000000000180000000C0000000C39CE0072A
:101F3000000000000000000180000000C000000060
:101F4000C39C0000000000000000000180000000B1
:101F5000C00F71E3F39CE7877F81F7000000000169
:101F600080000000C03FF3F3F3F8EFC77FC3FF002A
:101F70000000000180000000FE78F320C3F0EC8731
:101F800079C78F000000000180000000FE707380A0
:101F9000C3F0EE0771C707000000000180000000D9
:101FA000C07073E0C3F0EF8771C707000000000145
:101FB00080000000C07071F0C3B8E7C771C70700A8
:101FC0000000000180000000C0707070C3B8E1C75D
:101FD00071C707000000000180000000C078F330E6
:101FE000C398ECC771C78F0000000001800000009B
:101FF000FE3FF7F0C39CFFC771C3FF000000000164
:1020000080000000FE0F71E0C39CE78771C0F700FD
:10201000000000018000000000000000000000003F
:102020000000070000000001800000000000000028
:102030000000000000070E0000000001800000000A
:1020400000000000000000000003FE00000000018E
:102050008000000000000000000000000001F80007
:1020600000000001800000000000000000000000EF
:102070000000000000000001800003FFFFFFFFFFE1
:10208000FFFFFFFFFFFFFFFF80000001800003FF55
:10209000FFFFFFFFFFFFFFFFFFFFFFFF80000001CB
:1020A00080000000000000000000000000000000B0
:1020B0000000000180000000000001800C0060C0F2
:1020C000000000000000000180000000000001800E
:1020D0000C006000000000000000000180000326EA
:1020E000C9B2619C7C0E7CDF1C0E3CFF80000001AD
:1020F00080000376DDB761B6CC1B66D9A61B66CC23
:10210000C000000180000376DDB761B0CC1866D94D
:102110009E1866CCC0000001800001DC771DC1B0B4
:10212000CDD866D9B61866CCC0000001800001DCAD
:10213000771DCDB6CC1B66D9B6DB66CCC0000001DE
:102140008000018C6318CD9C7C0E66D99ECE3CCC61
:10215000C00000018000000000000000000000003E
:1021600000000000000000018000000000000000EE
:1021700000000000000000000000000180000000DE
:10218000000000000000000000000000000000014E
:1021900080000000000000000000000000000000BF
:1021A00000000001800000000000000000000000AE
:1021B000000000000000000180000000000000009E
:1021C000000000000000000000000001800000008E
:1021D00000000000000000000000000000000001FE
:1021E000800000000000000000000000000000006F
:1021F000000000018000000000000000000000005E
:10220000000000000000000180000000000000004D
:10221000000000000000000000000001800000003D
:1022200000000000000000000000000000000001AD
:1022300080000000000000000000000800004000D6
:1022400000000001800009380002000000000018B2
:1022500000104000C0000001800007EC04030000F3
:102260000000001E003E40184000000180000FFCEE
:10227000040200C7001C001E00E3400840000001EB
:10228000800032B006BA00CF007E007000324008F5
:1022900070000001800021B01EDA00FB008601E81A
:1022A000007E400CE0000001800031E01CD203FE03
:1022B00000C601AC03E6703B80000001800031F8ED
:1022C00004920FAA00F6004C01FFC07680000001C6
:1022D000800023E00EB2016E00F6007800BA406C78
:1022E000E000000180002FE01CB2034A0086006875
:1022F00000E64018200000018000293C190202403D
:102300004086004F80F04037E000000180003A2610
:1023100001020C60C0F600B980A84070E000000126
:10232000800018A00006003FC04E00E98020406FEA
:10233000B800000180000860000600000004019859
:10234000002040181C000001800000200002000056
:102350000000008800204008040000018000000008
:10236000000000000000000000000000000000016C
:1023700080000003E00079020007C00800100000A0
:102380000000000180000002000444000001000879
:102390000010000000000001800000021E7E453A8F
:1023A000E38118CE71931D1000000001800000032E
:1023B000E2847942948125294A54A4A000000001B6
:1023C000800000020E64493294813D094A54A4A061
:1023D00000000001800000021214450A94812129A6
:1023E0004A54A4A00000000180000003FEE64572EC
:1023F00093811CC949931C4000000001800000002B
:1024000000000000048000000000244000000001E3
:1024100080000000000000000300000000001880A1
:10242000000000018000000000000000000000002B
:10243000000000000000000180000000000000001B
:10244000000000000000000000000001800000000B
:10245000000000000000000000000000000000017B
:1024600080000000000000000000000000000000EC
:1024700000000001800000000000000000000000DB
:1024800000000000000000018000000000000000CB
:1024900000000000000000000000000180000000BB
:1024A000000000000000000000000000000000012B
:1024B000800000000000000000000000000000009C
:1024C000000000018000000000000000000000008B
:1024D000000000000000000180000000000000007B
:1024E000000000000000000000000001800000006B
:1024F000001FFFFFFFFFFFFFFFFF80000000000144
:1025000080000000001000000000000000008000BB
:1025100000000001800000000013EF878638E18E84
:1025200038068000000000018000000000130CCC81
:10253000CE6DB39B6C0E8000000000018000000097
:1025400000130CD81E61B7986C1E800000000001BB
:10255000800000000013ECD81679B59E6C16800040
:10256000000000018000000000130F98066DB19B71
:102570006C068000000000018000000000130D9830
:10258000066DB19B6DC68000000000018000000058
:1025900000130CCCC66DB19B6C06800000000001DE
:1025A000800000000013EC678638E18E380680005A
:1025B000000000018000000000100000000000008A
:1025C000000080000000000180000000001FFFFFED
:1025D000FFFFFFFFFFFF8000000000018000000000
:1025E00000000000000000000000000000000001EA
:1025F000800000000000000000000000000000005B
:102600000000000180000000000000000000000049
:102610000000000000000001800000000000000039
:102620000000000000000000000000018000000029
:102630000000000000000000000000000000000199
:10264000800000000000000000000000000000000A
:10265000000000018E1063027873CC18478E78F763
:10266000CE24405121124E799130948640805224DC
:102670004451448411244052211351459110908AB1
:1026800070E09224A45144841024405421B3514555
:102690009110211248908C24A79044F7933C405805
:1026A00021B351799110409F0890921CE4514484C9
:1026B000112442542152D141911084824891120533
:1026C00014514484112442522152D1418E10F302FC
:1026D00030610C39178E78F40F2441913D524E41F0
:1026E000800000000000000000000000000000006A
:1026F00000000001FFFFFFFFFFFFFFFFFFFFFFFFE5
:10270000FFFFFFFFFFFFFFFFFF00000000000000D2
:102710000000000000000000000000FFFF000000BB
:10272000000000000000000000000000000000FFAA
:10273000C000000600000000000180000000000052
:1027400000000003C0000006000000000003C000FD
:102750000000000000000003C000000600000007A9
:102760000003F0000000000000000003C000000EA5
:102770000000003F8001F81F8000000000000003FF
:10278000C000001F000000FFE03FCFF9F80000008C
:1027900000000003C000001F000001FFF0FFC38025
:1027A000F0000000000000030000003F000003FFF5
:1027B000F3C00000C0000000000000000000003F67
:1027C000000007FFFF0000006000000000000000A4
:1027D0000000003F80000FFFFE000000200000000E
:1027E000000000000000007F80001FFFFF000000CD
:1027F00010000000000000000000007F80001FFFAC
:10280000FF8000000801F00000000000000000FF51
:1028100080001FFFFF8000000C03FC000000000090
:10282000000000FFC0003FFFF3000000FC07FE00B7
:1028300000000000000001FFC0003FFFE2000000B8
:102840007F0FFF0000000000000001C7C0003FFF35
:1028500086000000339FFF0000000000000003819D
:10286000C0003FFF0FE0000031FFFF8000000000CC
:1028700000000721E0003FFFFFE00000707FFF80C5
:102880000000000000000730E0003FFFFFFC0000F8
:10289000E07FFF800000000000000F78E0001FFFD5
:1028A000F83E01FFF03FFF800000000000000F7CB9
:1028B000E0001FFFF00F07FFFC3FFF80000000005B
:1028C00000003F04E0000FFFFC07FFF81E1FFF8021
:1028D0000000000000007F01F0000FFFFF83FFF801
:1028E000078FFF80000000000003FFC3F00007DF38
:1028F000FFE1FFFF8387FF80000000000003FFFF70
:10290000F000019FFFF19FFFF987FF8000000000AA
:102910000003FFFFF000018FFFF19FFFF887FF80AA
:10292000000000000000FFFFF800030FFFF31FFF8F
:10293000F983FF000000000000003FFFF8000307DC
:10294000FFFE0FFFF983FF00000000000000000001
:1029500038000603FFFE07FFFF83FE0000000000B3
:10296000000000000C000601FFFC07FFFF01FC0057
:1029700000000000000000000C000C007FF003FFCE
:10298000FE01E00000000000000000000E000C004E
:102990001FE001FFFC0180000000000000000000BB
:1029A0000E0008001F80007FF8018000000000007A
:1029B0000000000006001807FC00000FC0018000A6
:1029C00000000000000000000600181FFE000000CC
:1029D0000001800000000000000000000700307FC0
:1029E000FF00002000018000000000000000000047
:1029F000033830FFFF8001FF00018000000000006D
:102A00000000000003FE31FFFF8003FF8001800013
:102A100000000000000000000303E3FF1F800FFF21
:102A2000E001800000000000000000000701C3FC7E
:102A30000F800FFFF0018000000000000000000088
:102A40000F01C7FC07801FFFF80180000000000095
:102A5000000000001F01C7F807801C1FF80180005C
:102A6000000000000000000013F38FF0FF80380F1B
:102A7000FC018000000000000000000031E70FF1C1
:102A80009E003107FE0180000000000000000000F1
:102A900030260FE30E003F87FF018000000000009A
:102AA00000000000202E1FF20E003FC7FF01800033
:102AB0000000000000000000206E1FF0060030E75C
:102AC000FF0180000000000000000000202C0FF833
:102AD00000001067FF81800000000000000000007F
:102AE000302C0FF830000007FF818000000000004C
:102AF00000000000300C0FFE7000000FFF8180000E
:102B00000000000000000000300C07FFF0000C1F68
:102B1000FF01C0000000000000000000180E03FFCD
:102B2000FE000FFFFF01C0000000000000000000D9
:102B30001C0601FFBF800FFFFE01C0000000000067
:102B4000000000000FE7007C1F8007FFFE01C000AF
:102B5000000000000000000007FF80001C0003FFD1
:102B6000FC01C000000000000000000001FF800028
:102B7000000000FFF801C00000000000000000009D
:102B8000001F80000000007FF003800000000000B4
:102B9000000000000007C0000000000000038000EB
:102BA00000000000000000000006E000000000003F
:102BB000000300000000000000000000000370009F
:102BC00000000000000700000000000000000000FE
:102BD0000003300000000000000E000000000000B4
:102BE00000000000000398000E300000000E0000FE
:102BF000000000000000000000018C01FFE0000068
:102C0000001C000000000000000000000001870020
:102C1000700000000038000000000000000000000C
:102C2000000083800000000000F0000000000000B1
:102C300000000000000041E00000000001C00000B2
:102C40000000000000000000000060F00000000034
:102C50000380000000000000000000000000603C55
:102C6000000000001E000000000000000000000046
:102C70000000700F0000000038000000000000009D
:102C8000000000000000300F80000000F80000008D
:102C900000000000000000000000180FF80000070E
:102CA000FC00000000000000000000000000181FF1
:102CB000FFC0007FFC0000000000000000000000DA
:102CC00000000C1FF1FFFFFFFE00000000000000ED
:102CD0000000000000000C3FC03FFFFFFE000000AE
:102CE00000000000000000000000063F000007FF99
:102CF000FE00000000000000000000000000063F91
:102D0000000007F1FF0000000000000000000000CC
:102D10000000033C000007E0FF000000000000008E
:102D2000000000000000033C000007C07F0000001E
:102D30000000000000000000000003F8000007C0D1
:102D40003F0000000000000000000000000001F053
:102D5000000007801F0000000000000000000000CD
:102D6000000000E0000007800F00000000000000ED
:102D700000000000000000E0000007000F0000005D
:102D80000000000000000000000000C00000022061
:102D9000070000000000000000000000000000C06C
:102DA00000000030030000000000000000000000F0
:102DB000000000C0000000100380000000000000C0
:102DC00000000000000001800000001801800000E9
:102DD000000000000000000000000180000000086A
:102DE00000C00000000000000000000000000180A2
:102DF0000000000C00400000000000000000000087
:102E000000000180000000060060000000000000DB
:102E1000000000000000010000000006007000003B
:102E2000000000000000000000000300000000039C
:102E3000007000000000000000000000000003001F
:102E4000000000030070000000000000000000000F
:102E5000000003000000000300600000000000000C
:102E600000000000000003000000000300600000FC
:102E7000000000000000000000000300000000034C
:102E800000600000000000000000000000000300DF
:102E900000000003006000000000000000000000CF
:102EA000000003000000000320C00000000000003C
:102EB000000000000000030000000001F18000009D
:102EC00000000000000000000000030000000000FF
:102ED000FF000000000000000000000000000300F0
:102EE00000000000FE0000000000000000000000E4
:102EF0000000030000000000FC00000000000000D3
:102F0000000000000000030000000000F8000000C6
:102F100000000000000000000000030000000000AE
:102F2000F0000000000000000000000000000100B0
:102F300000000000E00000000000000000000000B1
:102F40000000010000000001C000000000000000BF
:102F5000000000000000018000000001800000006F
:102F600000000000000000000000018000000001DF
:102F700000000000000000000000000000000180D0
:102F80000000000100000000000000000000000040
:102F900000000180000000030000000000000000AD
:102FA000000000000000018000000003000000009D
:102FB000000000000000000000000180000000038D
:102FC000000000000000000000000000000001C040
:102FD00010000007000000000000000000000000DA
:102FE000000000C018000007000000000000000002
:102FF00000000000000000C00E18000600000000E5
:103000000000000000000000000000C003F80006FF
:103010000000000000000000000000000000004070
:1030200000F00006000000000000000000000000AA
:1030300000000040006000060000000000000000EA
:1030400000000000000000600060000600000000BA
:1030500000000000000000000000006000600004AC
:103060000000000000000000000000000000003828
:1030700000600008000000000000000000000000E8
:103080000000003C0070001800000000000000007C
:10309000000000000000001F01F8007000000000A8
:1030A00000000000000000000000000FFFFFC1F062
:1030B000000000000000000000000000000000030D
:1030C000FF87FF80000000000000000000000000FB
:1030D000000000000000FF000000000000000000F1
:1030E00000000000000000000000000000000000E0
:1030F00000000000000000000000000000000000D0
:1031000000000000000000000000000000000000BF
:1031100000000000000000000000000000000000AF
:10312000000000000000000000000000000000009F
:10313000000000000000000000000000000000008F
:10314000000000000000000000000000000000007F
:10315000000000000000000000000000000000006F
:10316000000000000000000000000000000000005F
:10317000000000000000000000000000000000004F
:10318000000000003F3F07C30E3C1871E00C000038
:10319000000000000000000030318C671366389B8F
:1031A000301C000000000000000000003031980FCB
:1031B00030667983303C1E000600000000000000ED
:1031C0003031980B30665983302C330000000000FA
:1031D000000000003F3198033E6619F3300C303C8C
:1031E000F678F00000000000303F18033366199BAA
:1031F000300C3C66C6CD9800000000003033180348
:103200003366199B338C0F7EC6FDE0000000000082
:10321000303198033366199B300C0360C6C07800C8
:103220000000000030318C633366199B300C33662C
:10323000C6CD9800000000003F30C7C31E3C18F107
:10324000E00C1E3CC678F00000000000000000000A
:10325000000000000000000000000000000000006E
:10326000000000000000000000000000000000005E
:10327000000000000000000000000000000000004E
:10328000000000000000000000000000000000003E
:10329000000000000000000000000000000000002E
:1032A000000000000000000000000000000000001E
:1032B0000000001800C0060C000000000000000024
:1032C000000000000000001800C006000000000020
:1032D00000000000C00000326C9B2619C7C0E7CD7B
:1032E000F1C0E3CFF8000000C00000376DDB761BB3
:1032F0006CC1B66D9A61B66CCC000003C00000379B
:103300006DDB761B0CC1866D99E1866CCC000003E9
:10331000C000001DC771DC1B0CDD866D9B61866CD7
:10332000CC000003C000001DC771DCDB6CC1B66DB2
:103330009B6DB66CCC000003C0000018C6318CD960
:10334000C7C0E66D99ECE3CCCC000003C0000000E0
:10335000000000000000000000000000000000036A
:10336000FF800000000000000000000000000000DE
:10337000000001FFFF8000000000000000000000CE
:1033800000000000000001FF816170470A048261B3
:1033900070475FF0C04108707047974908707047E8
:1033A00010B50400200000F039FA10BD2DE9F047F7
:1033B00080468A4614001D0018F1250818F00F07F2
:1033C0005FFA88F85FEA181858F010085FF00009F3
:1033D0004846C0B20E282CDA3800C0B2FFF7D9FF39
:1033E0004046C0B2FFF7D5FF5046C0B210F00F0004
:1033F00050F06000FFF7CDFF5046C0B20009C0B2E8
:1034000050F07000FFF7C5FF2900C9B20E204143FC
:1034100021444846C0B2085C06003000C0B200F04B
:103420002FF90020FFF7B9FF1AF1010A19F101097C
:10343000CEE7BDE8F0872DE9F04104002100C9B2D4
:10344000642091FBF0F52000C0B2642290FBF2F101
:1034500002FB11000A2190FBF1F62700FFB2642164
:1034600097FBF1F001FB10770A2197FBF1F001FBCC
:103470001077DFF888812B00DBB242460021002064
:10348000FFF794FF3300DBB2424600210420FFF730
:103490008DFF3B00DBB2424600210820FFF786FF8C
:1034A000BDE8F08110B504000120FFF779FF81200D
:1034B000FFF76FFF2000C0B2FFF76BFF2000C0B224
:1034C000FFF7B9FF10BD10B50520FFF769FF4C4CA1
:1034D0004FF480612000FFF757FF1420FFF760FFD3
:1034E0004FF480612000FFF751FF1420FFF758FFD1
:1034F0004FF480612000FFF747FFC820FFF750FF1F
:10350000E220FFF746FF6420FFF74AFFE920FFF7BC
:1035100040FF2B20FFF73DFF2420FFF73AFF8120DB
:10352000FFF737FF37480078FFF733FFA420FFF796
:1035300030FFA620FFF72DFFC420FFF72AFFA120B0
:10354000FFF727FFD120FFF724FFD520FFF721FF4A
:103550008420FFF71EFFC820FFF71BFF1020FFF796
:1035600018FFDA20FFF715FFF420FFF712FF2520E0
:10357000FFF70FFFF620FFF70CFF5A20FFF709FFB8
:10358000F520FFF706FF0020FFF703FFF720FFF706
:1035900000FF9F20FFF7FDFEF820FFF7FAFE8920CD
:1035A000FFF7F7FE4020FFF7F4FE5020FFF7F1FE93
:1035B0009020FFF7EEFE0020FFF7EBFE8420FFF7E0
:1035C000E8FEF120FFF7E5FE9F20FFF7E2FEF22084
:1035D000FFF7DFFE0020FFF7DCFEF320FFF7D9FE48
:1035E0009F20FFF7D6FE00F00FF800F01BF8AD208B
:1035F000FFF7CFFE10BD0000000001601844000876
:10360000000002400900002080B56020FFF7C1FEE5
:103610007020FFF7BEFE1220FFF7BBFE0520FFF76C
:10362000B8FE01BD38B50025A02D0AD20020040047
:10363000512C04D20020FFF7B0FE641CF8E76D1C8B
:10364000F2E731BD2DE9F041060000275FF00008E8
:10365000B8F1A00F12D200200400142C08D2F05DA3
:1036600005007F1C2800C0B200F00AF8641CF4E7D3
:103670000020FFF792FE18F10108E9E7BDE8F081AC
:103680002DE9F14F84B09DF810B01BF0800B9DF830
:103690001040E4B2E40814F008049DF81050AD00A6
:1036A00015F080059DF81060F6B2760816F0080651
:1036B0009DF810703F0117F080079DF810805FEAB9
:1036C000480818F008089DF810905FEA891919F069
:1036D00080099DF810A05FEACA0A1AF0080A584645
:1036E000C0B25BEA50015846C0B251EA9001584658
:1036F000C0B251EAD0018DF80B102000C0B254EADC
:1037000050012000C0B251EA90012000C0B251EA3D
:10371000D0018DF80A102800C0B255EA50012800E7
:10372000C0B251EA90012800C0B251EAD0018DF830
:1037300009103000C0B256EA50013000C0B251EA60
:1037400090013000C0B251EAD0018DF80810380065
:10375000C0B257EA50013800C0B251EA90013800B7
:10376000C0B251EAD0018DF807104046C0B258EA05
:1037700050014046C0B251EA90014046C0B251EA01
:10378000D0018DF806104846C0B259EA50014846AB
:10379000C0B251EA90014846C0B251EAD0018DF85A
:1037A00005105046C0B25AEA50015046C0B251EA24
:1037B00090015046C0B251EAD0018DF804109DF836
:1037C0000B109DF80A0001438DF803109DF80910B5
:1037D0009DF8080001438DF802109DF807109DF830
:1037E000060001438DF801109DF805109DF80400B6
:1037F00001438DF800109DF80300FFF7CEFD9DF802
:103800000200FFF7CAFD9DF80100FFF7C6FD9DF815
:103810000000FFF7C2FD05B0BDE8F08F70B50400F1
:1038200000F010F80500260016F1010F02D0044840
:103830000078361800F006F8401BB042FAD370BD8D
:103840000800002001480068704700BF68000020A1
:10385000F8B50026002300240025102D80F00681F5
:10386000012717FA05F216000A6832401300B34226
:1038700040F0FA800A7912F00302012A04D00A7992
:1038800012F00302022A1FD1D0F808C05FF0030E25
:103890002A00D2B252001EFA02FE3CEA0E0CD1F807
:1038A0000CE02A00D2B252001EFA02FE5EEA0C0CB4
:1038B000C0F808C04268AF40BA434F68C7F300176A
:1038C000AF403A43140044600A7912F00302032A1D
:1038D00014D0C7685FF0030C2A00D2B252001CFA61
:1038E00002FC37EA0C07D1F808C02A00D2B2520015
:1038F0001CFA02FC5CEA07073C00C4600A7912F07B
:103900000302022A1ED12A00D20800EB8202176AA3
:103910005FF00F0C15F00702D2B292001CFA02FC05
:1039200037EA0C07D1F810C015F00702D2B29200A6
:103930001CFA02FC5CEA07073C002A00D20800EBF4
:103940008202146207685FF0030C2A00D2B25200B0
:103950001CFA02FC37EA0C0791F804C01CF0030CB7
:103960002A00D2B252001CFA02FC5CEA07073C00B3
:1039700004604A6812F4403F76D000220092DFF8DB
:10398000F020176857F480471760126812F48042DD
:103990000092009A374F2A00920857F822C05FF031
:1039A0000F0E15F00302D2B292001EFA02FE3CEA9C
:1039B0000E0C314A904201D1002423E02F4A90425C
:1039C00001D101241EE02E4A904201D1022419E0C7
:1039D0002C4A904201D1032414E02B4A904201D199
:1039E00004240FE0294A904201D105240AE0284A24
:1039F000904201D1062405E0264A904201D10724D5
:103A000000E00824E4B215F00302D2B29200944020
:103A100054EA0C0C2A00920847F822C01E4C226877
:103A20009A434F68FF0200D51A4322601B4F3C683F
:103A30009C43D1F804C05FEA8C2C00D51C433C6049
:103A4000174A17689F43D1F804C05FEA8C3C00D541
:103A50001F431760134A14689C43D1F804C05FEAFF
:103A6000CC3C00D51C4314606D1CF6E6F1BD000093
:103A7000443802400838014000000240000402407F
:103A800000080240000C02400010024000140240F6
:103A900000180240001C0240083C01400C3C014060
:103AA000043C0140003C01407349086850F48030F8
:103AB0000860704770480068400C10F001007047C3
:103AC0006E4A1168890889000143116070476B488C
:103AD000006810F00C007047684A116831F0F0017E
:103AE000014311607047654A116831F4E0510143A8
:103AF00011607047614A116831F4604101431160FF
:103B000070475D49086850F08070086070475A48F7
:103B10000068400E10F00100704770B4584D2E68D8
:103B2000584C264006430E4356EA82162E602C68F7
:103B300034F440341C432C6070BC7047524A116806
:103B4000C908C9000143116070474F48006810F070
:103B5000070070474D4A116831F4804101431160FC
:103B600070474B480068800B10F00100704780B52B
:103B700000F09CF800F040F800F0C0F800F0ECF81D
:103B800000F076F9FFF79FFCFFF74CFD4FF4FA7059
:103B9000FFF744FEC820FFF785FC4FF4FA70FFF7EB
:103BA0003DFEFFF731FD3B48FFF74CFD4FF4FA7047
:103BB000FFF734FEFFF728FD3748FFF743FD4FF4CA
:103BC000FA70FFF72BFEFFF71FFD3448FFF73AFDB1
:103BD0004FF4FA70FFF722FEFFF716FD3048FFF7AB
:103BE00031FD4FF4FA70FFF719FEFFF70DFD4FF4AA
:103BF000FA70FFF713FED4E780B50520FFF79EFFAC
:103C0000FFF7A3FF0528FBD14FF48040FFF7A2FF89
:103C1000FFF74AFFFFF74EFF0128FBD10023A82240
:103C200004215FF48000FFF778FFFFF76AFFFFF7DA
:103C30006EFF0128FBD1FFF794FF0028FBD0002086
:103C4000FFF74AFF4FF4A050FFF74DFF4FF400403D
:103C5000FFF750FF0220FFF733FFFFF738FF082878
:103C6000FBD1104800F028F90F2000F02BF90028B4
:103C700001D000F019F801BD0038024008380240B8
:103C8000043802400080BFFF003C0240007000404A
:103C90000470004088010008080E0008881A000817
:103CA00008270008007A030A72B6FEE780B50B48C1
:103CB000016851F400710160016851F48061016094
:103CC000016851F480710160032000F087F90F2032
:103CD00000F0F8F800F0B2F9002002BD003C02400C
:103CE00081B01B4A116801431160116801400091C5
:103CF000009901B070470A048261704710B586B020
:103D000018210022684600F0B9F98020FFF7E8FF8B
:103D10001020FFF7E5FF0820FFF7E2FF0120FFF783
:103D2000DFFF0C4C4FF480612000FFF7E4FF4FF4FD
:103D300080600090012001900020029000200390FC
:103D4000002004906946200000F060FA06B010BD23
:103D5000303802400000024000B587B01C2100222C
:103D6000684600F08BF93C485FF0204101603B4918
:103D70004160002181600021C160002101610021BA
:103D80004161002181610021C161002101620021A6
:103D900041624FF4805181620021C16200210163C0
:103DA0000021416300218163002141640F210091C2
:103DB00005210191052102910F2103911021049108
:103DC00011210591002106910022694600F066FA52
:103DD000002801D0FFF768FF07B000BD80B586B0AE
:103DE0001421002201A800F049F91D4908680028A3
:103DF0002BD101200860002000901A49086850F07B
:103E000001000860086810F00100009000984FF46D
:103E1000F0600190022002900020039003200490A3
:103E20000C20059001A91048FFF712FD4CF6B300D5
:103E300001900220029000200390032004900C20A7
:103E4000059001A90948FFF703FD07B000BD10B5B3
:103E50000400FFF7C3FF10BD0C000020040100A008
:103E6000640000203838024000100240000C02407C
:103E700080B50E480E49016000F041FA002801D0DB
:103E8000FFF712FF01BD81B0026809498A420BD1D8
:103E900000210091074A116851F4805111601168A6
:103EA00011F480510091009901B070475C0000202E
:103EB000003002403038024001490860704700007D
:103EC0000400002010B504004FF47A700D49097801
:103ED000B0FBF1F00C490968B1FBF0F000F099F883
:103EE000002801D001200CE0102C09D20022210072
:103EF0005FF0FF3000F078F804480460002000E034
:103F0000012010BD08000020040000200000002057
:103F100010B410F00702DFF808311C684FF6FF01FB
:103F20000C4054EA0224DFF8FC100C431C6010BC67
:103F30007047DFF8EC000068C0F302207047000013
:103F400010B4020052B2002A05D40C01364B020014
:103F500052B29C5408E00A01344C03005BB213F0E7
:103F60000F03234403F8042C10BC704770B4030003
:103F700013F00704D4F10700052801D3042001E061
:103F8000D4F10700251D072D01D2002600E0E61E12
:103F9000012515FA00F0401E0140B14015FA06F661
:103FA000761E32401143080070BC704710B5040003
:103FB000601EB0F1807F01D301200EE0611E1C481D
:103FC00001600F215FF0FF30FFF7BAFF00211948B1
:103FD0000160072118480160002010BD10B50400E1
:103FE0002000FFF795FF10BD2DE9F04180460C0041
:103FF00015000026FFF79DFF07002A00210038006A
:10400000FFF7B4FF0100404640B2FFF799FFBDE85B
:10401000F08110B504002000FFF7C8FF10BD0000BC
:104020000CED00E00000FA0500E400E018ED00E00F
:1040300014E000E018E000E010E000E081B00020B3
:1040400000900C49086850F480400860086810F43B
:10405000804000900098002000900749086850F0C8
:1040600080500860086810F080500090009801B0FF
:10407000704700BF443802404038024062F30F22CC
:1040800062F31F42401810F0030308D0C91A1FD36F
:10409000DB0748BF00F8012D28BF20F8022D1300D0
:1040A00030B414461546103928BF20E93C00FAD830
:1040B000490728BF20E90C0048BF40F8042D8900BB
:1040C00028BF20F8022D48BF00F8012D30BC7047F2
:1040D000C91818BF00F8012DCB0728BF00F8012D23
:1040E00070470EE002684368024408305FEAC37C10
:1040F00044BF4B445B1E52F804CB43F804CB091F6A
:10410000F9D150F8041B0029ECD1704730B4046891
:1041100091FAA1F3B3FA83F30325DBB25B009D4070
:10412000AC4391FAA1F3B3FA83F3DBB25B0012FA6A
:1041300003F31C43046030BC704710B444688C43E4
:1041400002FB01F31C43446010BC704730B4846828
:1041500091FAA1F3B3FA83F30325DBB25B009D4030
:10416000AC4391FAA1F3B3FA83F3DBB25B0012FA2A
:1041700003F31C43846030BC704730B4C46891FAC8
:10418000A1F3B3FA83F30325DBB25B009D40AC439C
:1041900091FAA1F3B3FA83F3DBB25B0012FA03F3F3
:1041A0001C43C46030BC704730B4046A91FAA1F378
:1041B000B3FA83F30F25DBB29B009D40AC4391FA29
:1041C000A1F3B3FA83F3DBB29B0012FA03F31C43AF
:1041D000046230BC704730B4446A0B001B0A93FA87
:1041E000A3F3B3FA83F30F25DBB29B009D40AC43EE
:1041F0000B001B0A93FAA3F3B3FA83F3DBB29B0021
:1042000012FA03F31C43446230BC7047F8B5050052
:104210000E0000200024316891FAA1F1B1FA81F773
:104220003068F840002836D031680120B84001409D
:104230000C00002C2DD07068012802D07068022874
:1042400009D1B26821002800FFF780FFF268210041
:104250002800FFF772FF326921002800FFF78DFF69
:104260007068022810D194FAA4F0B0FA80F00828FF
:1042700005D2726921002800FFF796FF04E07269F9
:1042800021002800FFF7A7FF726821002800FFF730
:104290003DFF7F1CC4E70020F2BD000070B50400A4
:1042A0000D001600002C01D1012027E094F84900F0
:1042B000002805D1002084F848002000FFF7C7FD42
:1042C00014F10801206800F02DF8A2682900206888
:1042D00000F062F8236BA2683100606800F078F8A3
:1042E0002168A06851F8202052F001022168A068DE
:1042F00041F82020012084F84900002070BD10B54D
:104300000400002C01D101200AE06079002804D1CA
:10431000002020712000FFF7B6FD01206071002011
:1043200010BD000070B40200086852F820305B082D
:104330005B00086842F820308868082801D14023D3
:1043400000E000234C681C4388680443C8680443A9
:104350000869044348690443C8690443086A04437C
:10436000486A0443886A0443C86A04430D6B2543C2
:1043700088690543C86B0543254C54F4806454F4A4
:10438000E024086852F82060A6432E43086842F8EB
:104390002060002070BC704710B403000C684868AF
:1043A00054EA0014886854EA0024C86854EA0044B7
:1043B0000869401E54EA00544869801E54EA0064AB
:1043C0008869044303EB82004460002010BC7047FE
:1043D00030B40400B3F5804F13D154F822500D4887
:1043E000054008680543486855EA0015886855EA9D
:1043F000002588690543C86855EA004544F82250FD
:1044000003E07FF0704044F82200002030BC704789
:104410007FFB08000000F0CF000000386CC6C6C665
:10442000C6C66C3800000000001878181818181854
:10443000187E00000000003C6666060C1830667EA0
:1044400000000000003C66661C060666663C000034
:1044500000000C0C1C3C6C6CCC7E0C1E00000000A0
:10446000007E60607C660666663C00000000003EE0
:1044700066C0FCE6C6C6C67C00000000007E666C16
:104480000C181818181800000000007CC6C66C7CB8
:10449000C6C6C67C00000000007CC6C6C6CE7E062E
:1044A000CCF8000030B4002412E050F8043BDA07E6
:1044B00044BF4B445B1E091F042943F8044BFAD246
:1044C0001A468D0744BF1C80921CCB0748BF14704E
:1044D00050F8041B0029E8D130BC704710B5034ADE
:1044E0007A440832024C7C44A41D03E040000000E2
:1044F0006000000004E01168101D11448847024666
:10450000A242F8D110BD00004EF68851CEF2000153
:10451000086840F470000860BFF34F8FBFF36F8FDF
:104520004FF00170E1EE100A7047000079FFFFFFC5
:10453000600000000C00002000000000A7FBFFFF4F
:104540000C000000C000000000000020000000007F
:1045500000F00DF8002801D0FFF7C0FFAFF3008096
:104560000020AFF30080FFF702FB00F002F801200B
:10457000704700F001B800000746384600F002F826
:10458000FBE7000080B5AFF30080024A110018205D
:10459000ABBEFBE7260002000548014603B46846AF
:1045A00080F30988AFF30080FFF7AEFFFFF7D0FF7D
:1045B000A5EDF5FE03480168034A127889180160E9
:1045C000704700BF6800002008000020FEE7FEE7FB
:1045D000FEE7FEE7FEE770477047704780B5FFF7DC
:1045E000E9FF01BD0148804701480047F545000843
:1045F000994500080249086850F470000860704747
:1046000088ED00E0100000000024F40001BF00006D
:10461000FFF7FEBFFFF7FEBFFFF7FEBFFFF7FEBFCE
:10462000FFF7FEBFFFF7FEBFFFF7FEBFFFF7FEBFBE
:10463000FFF7FEBFFFF7FEBFFFF7FEBFFFF7FEBFAE
:10464000FFF7FEBFFFF7FEBFFFF7FEBFFFF7FEBF9E
:10465000FFF7FEBFFFF7FEBFFFF7FEBFFFF7FEBF8E
:10466000FFF7FEBFFFF7FEBFFFF7FEBFFFF7FEBF7E
:10467000FFF7FEBFFFF7FEBFFFF7FEBFFFF7FEBF6E
:10468000FFF7FEBFFFF7FEBFFFF7FEBFFFF7FEBF5E
:10469000FFF7FEBFFFF7FEBFFFF7FEBFFFF7FEBF4E
:1046A000FFF7FEBFFFF7FEBFFFF7FEBFFFF7FEBF3E
:1046B000FFF7FEBFFFF7FEBFFFF7FEBFFFF7FEBF2E
:1046C000FFF7FEBFFFF7FEBFFFF7FEBFFFF7FEBF1E
:1046D000FFF7FEBFFFF7FEBFFFF7FEBFFFF7FEBF0E
:1046E000FFF7FEBFFFF7FEBFFFF7FEBFFFF7FEBFFE
:1046F000FFF7FEBFFFF7FEBFFFF7FEBFFFF7FEBFEE
:10470000FFF7FEBFFFF7FEBFFFF7FEBFFFF7FEBFDD
:10471000FFF7FEBFFFF7FEBFFFF7FEBFFFF7FEBFCD
:10472000FFF7FEBFFFF7FEBFFFF7FEBFFFF7FEBFBD
:10473000FFF7FEBFFFF7FEBFFFF7FEBFFFF7FEBFAD
:10474000FFF7FEBFFFF7FEBFFFF7FEBFFFF7FEBF9D
:04475000FFF7FEBFB2
:040000050800459911
:00000001FF
